{
  "_format": "hh-sol-artifact-1",
  "contractName": "CrowdFund",
  "sourceName": "contracts/CrowdFund.sol",
  "abi": [
    {
      "inputs": [
        {
          "internalType": "contract CrowdCoin",
          "name": "_token",
          "type": "address"
        },
        {
          "internalType": "contract ImageNFT",
          "name": "_nft",
          "type": "address"
        }
      ],
      "stateMutability": "nonpayable",
      "type": "constructor"
    },
    {
      "inputs": [],
      "name": "AlreadyClaimed",
      "type": "error"
    },
    {
      "inputs": [],
      "name": "AlreadyEnded",
      "type": "error"
    },
    {
      "inputs": [],
      "name": "AlreadyMinted",
      "type": "error"
    },
    {
      "inputs": [],
      "name": "GoalNotReached",
      "type": "error"
    },
    {
      "inputs": [],
      "name": "InvalidDuration",
      "type": "error"
    },
    {
      "inputs": [],
      "name": "InvalidGoal",
      "type": "error"
    },
    {
      "inputs": [],
      "name": "NotBacker",
      "type": "error"
    },
    {
      "inputs": [],
      "name": "NotCreator",
      "type": "error"
    },
    {
      "inputs": [],
      "name": "NotEnded",
      "type": "error"
    },
    {
      "inputs": [],
      "name": "NothingToRefund",
      "type": "error"
    },
    {
      "inputs": [],
      "name": "TransferFailed",
      "type": "error"
    },
    {
      "inputs": [],
      "name": "ZeroContribution",
      "type": "error"
    },
    {
      "anonymous": false,
      "inputs": [
        {
          "indexed": true,
          "internalType": "uint256",
          "name": "id",
          "type": "uint256"
        },
        {
          "indexed": true,
          "internalType": "address",
          "name": "creator",
          "type": "address"
        },
        {
          "indexed": false,
          "internalType": "uint256",
          "name": "goal",
          "type": "uint256"
        },
        {
          "indexed": false,
          "internalType": "uint32",
          "name": "startAt",
          "type": "uint32"
        },
        {
          "indexed": false,
          "internalType": "uint32",
          "name": "endAt",
          "type": "uint32"
        },
        {
          "indexed": false,
          "internalType": "string",
          "name": "title",
          "type": "string"
        },
        {
          "indexed": false,
          "internalType": "string",
          "name": "artist",
          "type": "string"
        },
        {
          "indexed": false,
          "internalType": "string",
          "name": "uri",
          "type": "string"
        }
      ],
      "name": "CampaignCreated",
      "type": "event"
    },
    {
      "anonymous": false,
      "inputs": [
        {
          "indexed": true,
          "internalType": "uint256",
          "name": "id",
          "type": "uint256"
        },
        {
          "indexed": true,
          "internalType": "address",
          "name": "caller",
          "type": "address"
        },
        {
          "indexed": false,
          "internalType": "uint256",
          "name": "amount",
          "type": "uint256"
        }
      ],
      "name": "Contributed",
      "type": "event"
    },
    {
      "anonymous": false,
      "inputs": [
        {
          "indexed": true,
          "internalType": "uint256",
          "name": "id",
          "type": "uint256"
        },
        {
          "indexed": true,
          "internalType": "address",
          "name": "caller",
          "type": "address"
        },
        {
          "indexed": false,
          "internalType": "uint256",
          "name": "tokenId",
          "type": "uint256"
        }
      ],
      "name": "NFTMinted",
      "type": "event"
    },
    {
      "anonymous": false,
      "inputs": [
        {
          "indexed": true,
          "internalType": "uint256",
          "name": "id",
          "type": "uint256"
        },
        {
          "indexed": true,
          "internalType": "address",
          "name": "caller",
          "type": "address"
        },
        {
          "indexed": false,
          "internalType": "uint256",
          "name": "amount",
          "type": "uint256"
        }
      ],
      "name": "Refund",
      "type": "event"
    },
    {
      "anonymous": false,
      "inputs": [
        {
          "indexed": true,
          "internalType": "uint256",
          "name": "id",
          "type": "uint256"
        }
      ],
      "name": "Withdraw",
      "type": "event"
    },
    {
      "inputs": [
        {
          "internalType": "uint256",
          "name": "",
          "type": "uint256"
        }
      ],
      "name": "campaigns",
      "outputs": [
        {
          "internalType": "address",
          "name": "creator",
          "type": "address"
        },
        {
          "internalType": "uint256",
          "name": "goal",
          "type": "uint256"
        },
        {
          "internalType": "uint256",
          "name": "pledged",
          "type": "uint256"
        },
        {
          "internalType": "uint32",
          "name": "startAt",
          "type": "uint32"
        },
        {
          "internalType": "uint32",
          "name": "endAt",
          "type": "uint32"
        },
        {
          "internalType": "bool",
          "name": "claimed",
          "type": "bool"
        },
        {
          "internalType": "string",
          "name": "title",
          "type": "string"
        },
        {
          "internalType": "string",
          "name": "artist",
          "type": "string"
        },
        {
          "internalType": "string",
          "name": "uri",
          "type": "string"
        }
      ],
      "stateMutability": "view",
      "type": "function"
    },
    {
      "inputs": [
        {
          "internalType": "uint256",
          "name": "_id",
          "type": "uint256"
        }
      ],
      "name": "contribute",
      "outputs": [],
      "stateMutability": "payable",
      "type": "function"
    },
    {
      "inputs": [
        {
          "internalType": "uint256",
          "name": "_goal",
          "type": "uint256"
        },
        {
          "internalType": "uint32",
          "name": "_duration",
          "type": "uint32"
        },
        {
          "internalType": "string",
          "name": "_title",
          "type": "string"
        },
        {
          "internalType": "string",
          "name": "_artist",
          "type": "string"
        },
        {
          "internalType": "string",
          "name": "_uri",
          "type": "string"
        }
      ],
      "name": "createCampaign",
      "outputs": [
        {
          "internalType": "uint256",
          "name": "id",
          "type": "uint256"
        }
      ],
      "stateMutability": "nonpayable",
      "type": "function"
    },
    {
      "inputs": [
        {
          "internalType": "uint256",
          "name": "_id",
          "type": "uint256"
        }
      ],
      "name": "mintArtworkNFT",
      "outputs": [],
      "stateMutability": "nonpayable",
      "type": "function"
    },
    {
      "inputs": [],
      "name": "nextCampaignId",
      "outputs": [
        {
          "internalType": "uint256",
          "name": "",
          "type": "uint256"
        }
      ],
      "stateMutability": "view",
      "type": "function"
    },
    {
      "inputs": [],
      "name": "nft",
      "outputs": [
        {
          "internalType": "contract ImageNFT",
          "name": "",
          "type": "address"
        }
      ],
      "stateMutability": "view",
      "type": "function"
    },
    {
      "inputs": [
        {
          "internalType": "uint256",
          "name": "",
          "type": "uint256"
        },
        {
          "internalType": "address",
          "name": "",
          "type": "address"
        }
      ],
      "name": "nftMinted",
      "outputs": [
        {
          "internalType": "bool",
          "name": "",
          "type": "bool"
        }
      ],
      "stateMutability": "view",
      "type": "function"
    },
    {
      "inputs": [
        {
          "internalType": "uint256",
          "name": "",
          "type": "uint256"
        },
        {
          "internalType": "address",
          "name": "",
          "type": "address"
        }
      ],
      "name": "pledgedOf",
      "outputs": [
        {
          "internalType": "uint256",
          "name": "",
          "type": "uint256"
        }
      ],
      "stateMutability": "view",
      "type": "function"
    },
    {
      "inputs": [
        {
          "internalType": "uint256",
          "name": "_id",
          "type": "uint256"
        }
      ],
      "name": "refund",
      "outputs": [],
      "stateMutability": "nonpayable",
      "type": "function"
    },
    {
      "inputs": [],
      "name": "token",
      "outputs": [
        {
          "internalType": "contract CrowdCoin",
          "name": "",
          "type": "address"
        }
      ],
      "stateMutability": "view",
      "type": "function"
    },
    {
      "inputs": [
        {
          "internalType": "uint256",
          "name": "_id",
          "type": "uint256"
        }
      ],
      "name": "withdraw",
      "outputs": [],
      "stateMutability": "nonpayable",
      "type": "function"
    },
    {
      "stateMutability": "payable",
      "type": "receive"
    }
  ],
  "bytecode": "0x60c0604052600160005534801561001557600080fd5b506040516113f93803806113f983398101604081905261003491610063565b6001600160a01b039182166080521660a05261009d565b6001600160a01b038116811461006057600080fd5b50565b6000806040838503121561007657600080fd5b82516100818161004b565b60208401519092506100928161004b565b809150509250929050565b60805160a0516113226100d76000396000818161017b015261093d0152600081816102c1015281816105d70152610cf401526113226000f3fe6080604052600436106100a05760003560e01c80637903a756116100645780637903a756146101d5578063a2ca1342146101f9578063a501ae9314610244578063c1cbbca714610264578063deaea5da14610277578063fc0c546a146102af57600080fd5b8063141961bc146100e9578063278ecde1146101275780632e1a7d4d1461014957806347ccca02146101695780635bc39b60146101b557600080fd5b366100e45760405162461bcd60e51b815260206004820152601060248201526f55736520636f6e74726962757465282960801b604482015260640160405180910390fd5b600080fd5b3480156100f557600080fd5b50610109610104366004610d93565b6102e3565b60405161011e99989796959493929190610df2565b60405180910390f35b34801561013357600080fd5b50610147610142366004610d93565b6104e4565b005b34801561015557600080fd5b50610147610164366004610d93565b6106e1565b34801561017557600080fd5b5061019d7f000000000000000000000000000000000000000000000000000000000000000081565b6040516001600160a01b03909116815260200161011e565b3480156101c157600080fd5b506101476101d0366004610d93565b61085e565b3480156101e157600080fd5b506101eb60005481565b60405190815260200161011e565b34801561020557600080fd5b50610234610214366004610e7a565b600360209081526000928352604080842090915290825290205460ff1681565b604051901515815260200161011e565b34801561025057600080fd5b506101eb61025f366004610f59565b610a0c565b610147610272366004610d93565b610c30565b34801561028357600080fd5b506101eb610292366004610e7a565b600260209081526000928352604080842090915290825290205481565b3480156102bb57600080fd5b5061019d7f000000000000000000000000000000000000000000000000000000000000000081565b6001602081905260009182526040909120805491810154600282015460038301546004840180546001600160a01b03909616959394929363ffffffff80841694640100000000850490911693600160401b900460ff1692909161034590611007565b80601f016020809104026020016040519081016040528092919081815260200182805461037190611007565b80156103be5780601f10610393576101008083540402835291602001916103be565b820191906000526020600020905b8154815290600101906020018083116103a157829003601f168201915b5050505050908060050180546103d390611007565b80601f01602080910402602001604051908101604052809291908181526020018280546103ff90611007565b801561044c5780601f106104215761010080835404028352916020019161044c565b820191906000526020600020905b81548152906001019060200180831161042f57829003601f168201915b50505050509080600601805461046190611007565b80601f016020809104026020016040519081016040528092919081815260200182805461048d90611007565b80156104da5780601f106104af576101008083540402835291602001916104da565b820191906000526020600020905b8154815290600101906020018083116104bd57829003601f168201915b5050505050905089565b60008181526001602052604090206003810154640100000000900463ffffffff1642101561052557604051631a6031a360e31b815260040160405180910390fd5b806001015481600201541061054d576040516378c754c960e01b815260040160405180910390fd5b6000828152600260209081526040808320338452909152812054908190036105885760405163f76aef6560e01b815260040160405180910390fd5b60008381526002602081815260408084203385529091528220829055830180548392906105b6908490611057565b9091555050604051632770a7eb60e21b8152336004820152602481018290527f00000000000000000000000000000000000000000000000000000000000000006001600160a01b031690639dc29fac90604401600060405180830381600087803b15801561062357600080fd5b505af1158015610637573d6000803e3d6000fd5b50506040516000925033915083908381818185875af1925050503d806000811461067d576040519150601f19603f3d011682016040523d82523d6000602084013e610682565b606091505b50509050806106a4576040516312171d8360e31b815260040160405180910390fd5b604051828152339085907f21e12a7cad0da5928167e1084ea4d5fdf8d9af66657a2543a9ac76a0ca0814779060200160405180910390a350505050565b600081815260016020526040902080546001600160a01b03163314610719576040516393687c0b60e01b815260040160405180910390fd5b6003810154640100000000900463ffffffff1642101561074c57604051631a6031a360e31b815260040160405180910390fd5b806001015481600201541015610775576040516378c754c960e01b815260040160405180910390fd5b6003810154600160401b900460ff16156107a257604051630c8d9eab60e31b815260040160405180910390fd5b60038101805460ff60401b1916600160401b179055805460028201546040516000926001600160a01b031691908381818185875af1925050503d8060008114610807576040519150601f19603f3d011682016040523d82523d6000602084013e61080c565b606091505b505090508061082e576040516312171d8360e31b815260040160405180910390fd5b60405183907f5b6b431d4476a211bb7d41c20d1aab9ae2321deee0d20be3d9fc9b1093fa6e3d90600090a2505050565b60008181526001602081905260409091209081015460028201541015610897576040516378c754c960e01b815260040160405180910390fd5b600082815260026020908152604080832033845290915281205490036108d0576040516314280f3d60e21b815260040160405180910390fd5b600082815260036020908152604080832033845290915290205460ff161561090b57604051631bbdf5c560e31b815260040160405180910390fd5b6000828152600360209081526040808320338085529252808320805460ff191660011790555163d0def52160e01b81527f00000000000000000000000000000000000000000000000000000000000000006001600160a01b03169163d0def5219161097e91906006870190600401611070565b6020604051808303816000875af115801561099d573d6000803e3d6000fd5b505050506040513d601f19601f820116820180604052508101906109c19190611110565b9050336001600160a01b0316837f055e34067993de700e7f718f190fdccc92a27695bb9068504a1a44258577f8eb836040516109ff91815260200190565b60405180910390a3505050565b600085600003610a2f57604051639b60eb4d60e01b815260040160405180910390fd5b8463ffffffff16600003610a5657604051637616640160e01b815260040160405180910390fd5b426000610a638783611129565b6000805491925080610a748361114d565b919050559250604051806101200160405280336001600160a01b03168152602001898152602001600081526020018363ffffffff1681526020018263ffffffff168152602001600015158152602001878152602001868152602001858152506001600085815260200190815260200160002060008201518160000160006101000a8154816001600160a01b0302191690836001600160a01b03160217905550602082015181600101556040820151816002015560608201518160030160006101000a81548163ffffffff021916908363ffffffff16021790555060808201518160030160046101000a81548163ffffffff021916908363ffffffff16021790555060a08201518160030160086101000a81548160ff02191690831515021790555060c0820151816004019081610baa91906111b7565b5060e08201516005820190610bbf90826111b7565b506101008201516006820190610bd590826111b7565b50905050336001600160a01b0316837f63faa711f3ae38d590bf4fbd148d4d1bef927ae74dc56a3816030bba3e63eac88a85858b8b8b604051610c1d96959493929190611277565b60405180910390a3505095945050505050565b60008181526001602052604090206003810154640100000000900463ffffffff16421115610c7157604051634f9ebfb760e01b815260040160405180910390fd5b34600003610c9257604051631570544960e31b815260040160405180910390fd5b34816002016000828254610ca691906112d9565b9091555050600082815260026020908152604080832033845290915281208054349290610cd49084906112d9565b90915550506040516340c10f1960e01b81523360048201523460248201527f00000000000000000000000000000000000000000000000000000000000000006001600160a01b0316906340c10f1990604401600060405180830381600087803b158015610d4057600080fd5b505af1158015610d54573d6000803e3d6000fd5b50506040513481523392508491507fb2ed2e021651f85a4754a44651fc09ac5141bc0329ce4dfe8dd712a5d04a8b399060200160405180910390a35050565b600060208284031215610da557600080fd5b5035919050565b6000815180845260005b81811015610dd257602081850181015186830182015201610db6565b506000602082860101526020601f19601f83011685010191505092915050565b6001600160a01b038a168152602081018990526040810188905263ffffffff87811660608301528616608082015284151560a082015261012060c08201819052600090610e4183820187610dac565b905082810360e0840152610e558186610dac565b9050828103610100840152610e6a8185610dac565b9c9b505050505050505050505050565b60008060408385031215610e8d57600080fd5b8235915060208301356001600160a01b0381168114610eab57600080fd5b809150509250929050565b634e487b7160e01b600052604160045260246000fd5b600082601f830112610edd57600080fd5b813567ffffffffffffffff80821115610ef857610ef8610eb6565b604051601f8301601f19908116603f01168101908282118183101715610f2057610f20610eb6565b81604052838152866020858801011115610f3957600080fd5b836020870160208301376000602085830101528094505050505092915050565b600080600080600060a08688031215610f7157600080fd5b85359450602086013563ffffffff81168114610f8c57600080fd5b9350604086013567ffffffffffffffff80821115610fa957600080fd5b610fb589838a01610ecc565b94506060880135915080821115610fcb57600080fd5b610fd789838a01610ecc565b93506080880135915080821115610fed57600080fd5b50610ffa88828901610ecc565b9150509295509295909350565b600181811c9082168061101b57607f821691505b60208210810361103b57634e487b7160e01b600052602260045260246000fd5b50919050565b634e487b7160e01b600052601160045260246000fd5b8181038181111561106a5761106a611041565b92915050565b60018060a01b038316815260006020604060208401526000845461109381611007565b80604087015260606001808416600081146110b557600181146110d157611101565b60ff19851660608a0152606084151560051b8a01019550611101565b89600052602060002060005b858110156110f85781548b82018601529083019088016110dd565b8a016060019650505b50939998505050505050505050565b60006020828403121561112257600080fd5b5051919050565b63ffffffff81811683821601908082111561114657611146611041565b5092915050565b60006001820161115f5761115f611041565b5060010190565b601f8211156111b2576000816000526020600020601f850160051c8101602086101561118f5750805b601f850160051c820191505b818110156111ae5782815560010161119b565b5050505b505050565b815167ffffffffffffffff8111156111d1576111d1610eb6565b6111e5816111df8454611007565b84611166565b602080601f83116001811461121a57600084156112025750858301515b600019600386901b1c1916600185901b1785556111ae565b600085815260208120601f198616915b828110156112495788860151825594840194600190910190840161122a565b50858210156112675787850151600019600388901b60f8161c191681555b5050505050600190811b01905550565b868152600063ffffffff808816602084015280871660408401525060c060608301526112a660c0830186610dac565b82810360808401526112b88186610dac565b905082810360a08401526112cc8185610dac565b9998505050505050505050565b8082018082111561106a5761106a61104156fea264697066735822122073f878beb6f248a36061c50b8709fd43df1490578185095a62ea4f0488e2d21364736f6c63430008180033",
  "linkReferences": {},
  "deployedLinkReferences": {}
}