{
  "_format": "hh-sol-artifact-1",
  "contractName": "Vesting",
  "sourceName": "contracts/Vesting.sol",
  "abi": [
    {
      "inputs": [
        {
          "internalType": "contract IERC20",
          "name": "_token",
          "type": "address"
        },
        {
          "internalType": "uint64",
          "name": "_cliffMonths",
          "type": "uint64"
        },
        {
          "internalType": "uint64",
          "name": "_durationMonths",
          "type": "uint64"
        }
      ],
      "stateMutability": "nonpayable",
      "type": "constructor"
    },
    {
      "inputs": [],
      "name": "claim",
      "outputs": [],
      "stateMutability": "nonpayable",
      "type": "function"
    },
    {
      "inputs": [
        {
          "internalType": "address",
          "name": "user",
          "type": "address"
        }
      ],
      "name": "claimable",
      "outputs": [
        {
          "internalType": "uint256",
          "name": "",
          "type": "uint256"
        }
      ],
      "stateMutability": "view",
      "type": "function"
    },
    {
      "inputs": [
        {
          "internalType": "address",
          "name": "",
          "type": "address"
        }
      ],
      "name": "claimed",
      "outputs": [
        {
          "internalType": "uint256",
          "name": "",
          "type": "uint256"
        }
      ],
      "stateMutability": "view",
      "type": "function"
    },
    {
      "inputs": [],
      "name": "cliff",
      "outputs": [
        {
          "internalType": "uint64",
          "name": "",
          "type": "uint64"
        }
      ],
      "stateMutability": "view",
      "type": "function"
    },
    {
      "inputs": [],
      "name": "duration",
      "outputs": [
        {
          "internalType": "uint64",
          "name": "",
          "type": "uint64"
        }
      ],
      "stateMutability": "view",
      "type": "function"
    },
    {
      "inputs": [],
      "name": "token",
      "outputs": [
        {
          "internalType": "contract IERC20",
          "name": "",
          "type": "address"
        }
      ],
      "stateMutability": "view",
      "type": "function"
    }
  ],
  "bytecode": "0x60e060405234801561001057600080fd5b506040516106f23803806106f283398101604081905261002f916100a6565b6001600160a01b0383166080526100498262278d0061010d565b61005c906001600160401b031642610138565b6001600160401b031660a0526100758162278d0061010d565b6001600160401b031660c05250610151915050565b80516001600160401b03811681146100a157600080fd5b919050565b6000806000606084860312156100bb57600080fd5b83516001600160a01b03811681146100d257600080fd5b92506100e06020850161008a565b91506100ee6040850161008a565b90509250925092565b634e487b7160e01b600052601160045260246000fd5b6001600160401b03818116838216028082169190828114610130576101306100f7565b505092915050565b8082018082111561014b5761014b6100f7565b92915050565b60805160a05160c05161054a6101a860003960008181606c0152818161026e01526102ec01526000818160b1015281816101fb01526102440152600081816101230152818161018201526103b5015261054a6000f3fe608060405234801561001057600080fd5b50600436106100625760003560e01c80630fb5a6b41461006757806313d033c0146100ac578063402914f5146100d35780634e71d92d146100f4578063c884ef83146100fe578063fc0c546a1461011e575b600080fd5b61008e7f000000000000000000000000000000000000000000000000000000000000000081565b60405167ffffffffffffffff90911681526020015b60405180910390f35b61008e7f000000000000000000000000000000000000000000000000000000000000000081565b6100e66100e136600461042e565b61015d565b6040519081526020016100a3565b6100fc61032a565b005b6100e661010c36600461042e565b60006020819052908152604090205481565b6101457f000000000000000000000000000000000000000000000000000000000000000081565b6040516001600160a01b0390911681526020016100a3565b6040516370a0823160e01b815230600482015260009081906002906001600160a01b037f000000000000000000000000000000000000000000000000000000000000000016906370a0823190602401602060405180830381865afa1580156101c9573d6000803e3d6000fd5b505050506040513d601f19601f820116820180604052508101906101ed919061045e565b6101f7919061048d565b90507f000000000000000000000000000000000000000000000000000000000000000067ffffffffffffffff164210156102345750600092915050565b600061026a67ffffffffffffffff7f000000000000000000000000000000000000000000000000000000000000000016426104af565b90507f000000000000000000000000000000000000000000000000000000000000000067ffffffffffffffff1681106102c8576001600160a01b0384166000908152602081905260409020546102c090836104af565b949350505050565b6001600160a01b03841660009081526020819052604090205467ffffffffffffffff7f00000000000000000000000000000000000000000000000000000000000000001661031683856104c8565b610320919061048d565b6102c091906104af565b60006103353361015d565b9050600081116103755760405162461bcd60e51b81526020600482015260076024820152664e6f7468696e6760c81b604482015260640160405180910390fd5b33600090815260208190526040812080548392906103949084906104df565b909155505060405163a9059cbb60e01b8152336004820152602481018290527f00000000000000000000000000000000000000000000000000000000000000006001600160a01b03169063a9059cbb906044016020604051808303816000875af1158015610406573d6000803e3d6000fd5b505050506040513d601f19601f8201168201806040525081019061042a91906104f2565b5050565b60006020828403121561044057600080fd5b81356001600160a01b038116811461045757600080fd5b9392505050565b60006020828403121561047057600080fd5b5051919050565b634e487b7160e01b600052601160045260246000fd5b6000826104aa57634e487b7160e01b600052601260045260246000fd5b500490565b818103818111156104c2576104c2610477565b92915050565b80820281158282048414176104c2576104c2610477565b808201808211156104c2576104c2610477565b60006020828403121561050457600080fd5b8151801515811461045757600080fdfea2646970667358221220ddc15208b45b828b576a0471f6e7ae4e5090675716fd17c56b47fd73961bf6a564736f6c63430008180033",
  "linkReferences": {},
  "deployedLinkReferences": {}
}