{
  "_format": "hh-sol-artifact-1",
  "contractName": "FundTimelock",
  "sourceName": "contracts/FundTimelock.sol",
  "abi": [
    {
      "inputs": [
        {
          "internalType": "uint256",
          "name": "minDelay",
          "type": "uint256"
        },
        {
          "internalType": "address[]",
          "name": "proposers",
          "type": "address[]"
        },
        {
          "internalType": "address[]",
          "name": "executors",
          "type": "address[]"
        },
        {
          "internalType": "address",
          "name": "admin",
          "type": "address"
        }
      ],
      "stateMutability": "nonpayable",
      "type": "constructor"
    },
    {
      "anonymous": false,
      "inputs": [
        {
          "indexed": true,
          "internalType": "bytes32",
          "name": "id",
          "type": "bytes32"
        },
        {
          "indexed": true,
          "internalType": "uint256",
          "name": "index",
          "type": "uint256"
        },
        {
          "indexed": false,
          "internalType": "address",
          "name": "target",
          "type": "address"
        },
        {
          "indexed": false,
          "internalType": "uint256",
          "name": "value",
          "type": "uint256"
        },
        {
          "indexed": false,
          "internalType": "bytes",
          "name": "data",
          "type": "bytes"
        }
      ],
      "name": "CallExecuted",
      "type": "event"
    },
    {
      "anonymous": false,
      "inputs": [
        {
          "indexed": true,
          "internalType": "bytes32",
          "name": "id",
          "type": "bytes32"
        },
        {
          "indexed": false,
          "internalType": "bytes32",
          "name": "salt",
          "type": "bytes32"
        }
      ],
      "name": "CallSalt",
      "type": "event"
    },
    {
      "anonymous": false,
      "inputs": [
        {
          "indexed": true,
          "internalType": "bytes32",
          "name": "id",
          "type": "bytes32"
        },
        {
          "indexed": true,
          "internalType": "uint256",
          "name": "index",
          "type": "uint256"
        },
        {
          "indexed": false,
          "internalType": "address",
          "name": "target",
          "type": "address"
        },
        {
          "indexed": false,
          "internalType": "uint256",
          "name": "value",
          "type": "uint256"
        },
        {
          "indexed": false,
          "internalType": "bytes",
          "name": "data",
          "type": "bytes"
        },
        {
          "indexed": false,
          "internalType": "bytes32",
          "name": "predecessor",
          "type": "bytes32"
        },
        {
          "indexed": false,
          "internalType": "uint256",
          "name": "delay",
          "type": "uint256"
        }
      ],
      "name": "CallScheduled",
      "type": "event"
    },
    {
      "anonymous": false,
      "inputs": [
        {
          "indexed": true,
          "internalType": "bytes32",
          "name": "id",
          "type": "bytes32"
        }
      ],
      "name": "Cancelled",
      "type": "event"
    },
    {
      "anonymous": false,
      "inputs": [
        {
          "indexed": false,
          "internalType": "uint256",
          "name": "oldDuration",
          "type": "uint256"
        },
        {
          "indexed": false,
          "internalType": "uint256",
          "name": "newDuration",
          "type": "uint256"
        }
      ],
      "name": "MinDelayChange",
      "type": "event"
    },
    {
      "anonymous": false,
      "inputs": [
        {
          "indexed": true,
          "internalType": "bytes32",
          "name": "role",
          "type": "bytes32"
        },
        {
          "indexed": true,
          "internalType": "bytes32",
          "name": "previousAdminRole",
          "type": "bytes32"
        },
        {
          "indexed": true,
          "internalType": "bytes32",
          "name": "newAdminRole",
          "type": "bytes32"
        }
      ],
      "name": "RoleAdminChanged",
      "type": "event"
    },
    {
      "anonymous": false,
      "inputs": [
        {
          "indexed": true,
          "internalType": "bytes32",
          "name": "role",
          "type": "bytes32"
        },
        {
          "indexed": true,
          "internalType": "address",
          "name": "account",
          "type": "address"
        },
        {
          "indexed": true,
          "internalType": "address",
          "name": "sender",
          "type": "address"
        }
      ],
      "name": "RoleGranted",
      "type": "event"
    },
    {
      "anonymous": false,
      "inputs": [
        {
          "indexed": true,
          "internalType": "bytes32",
          "name": "role",
          "type": "bytes32"
        },
        {
          "indexed": true,
          "internalType": "address",
          "name": "account",
          "type": "address"
        },
        {
          "indexed": true,
          "internalType": "address",
          "name": "sender",
          "type": "address"
        }
      ],
      "name": "RoleRevoked",
      "type": "event"
    },
    {
      "inputs": [],
      "name": "CANCELLER_ROLE",
      "outputs": [
        {
          "internalType": "bytes32",
          "name": "",
          "type": "bytes32"
        }
      ],
      "stateMutability": "view",
      "type": "function"
    },
    {
      "inputs": [],
      "name": "DEFAULT_ADMIN_ROLE",
      "outputs": [
        {
          "internalType": "bytes32",
          "name": "",
          "type": "bytes32"
        }
      ],
      "stateMutability": "view",
      "type": "function"
    },
    {
      "inputs": [],
      "name": "EXECUTOR_ROLE",
      "outputs": [
        {
          "internalType": "bytes32",
          "name": "",
          "type": "bytes32"
        }
      ],
      "stateMutability": "view",
      "type": "function"
    },
    {
      "inputs": [],
      "name": "PROPOSER_ROLE",
      "outputs": [
        {
          "internalType": "bytes32",
          "name": "",
          "type": "bytes32"
        }
      ],
      "stateMutability": "view",
      "type": "function"
    },
    {
      "inputs": [],
      "name": "TIMELOCK_ADMIN_ROLE",
      "outputs": [
        {
          "internalType": "bytes32",
          "name": "",
          "type": "bytes32"
        }
      ],
      "stateMutability": "view",
      "type": "function"
    },
    {
      "inputs": [
        {
          "internalType": "bytes32",
          "name": "id",
          "type": "bytes32"
        }
      ],
      "name": "cancel",
      "outputs": [],
      "stateMutability": "nonpayable",
      "type": "function"
    },
    {
      "inputs": [
        {
          "internalType": "address",
          "name": "target",
          "type": "address"
        },
        {
          "internalType": "uint256",
          "name": "value",
          "type": "uint256"
        },
        {
          "internalType": "bytes",
          "name": "payload",
          "type": "bytes"
        },
        {
          "internalType": "bytes32",
          "name": "predecessor",
          "type": "bytes32"
        },
        {
          "internalType": "bytes32",
          "name": "salt",
          "type": "bytes32"
        }
      ],
      "name": "execute",
      "outputs": [],
      "stateMutability": "payable",
      "type": "function"
    },
    {
      "inputs": [
        {
          "internalType": "address[]",
          "name": "targets",
          "type": "address[]"
        },
        {
          "internalType": "uint256[]",
          "name": "values",
          "type": "uint256[]"
        },
        {
          "internalType": "bytes[]",
          "name": "payloads",
          "type": "bytes[]"
        },
        {
          "internalType": "bytes32",
          "name": "predecessor",
          "type": "bytes32"
        },
        {
          "internalType": "bytes32",
          "name": "salt",
          "type": "bytes32"
        }
      ],
      "name": "executeBatch",
      "outputs": [],
      "stateMutability": "payable",
      "type": "function"
    },
    {
      "inputs": [],
      "name": "getMinDelay",
      "outputs": [
        {
          "internalType": "uint256",
          "name": "",
          "type": "uint256"
        }
      ],
      "stateMutability": "view",
      "type": "function"
    },
    {
      "inputs": [
        {
          "internalType": "bytes32",
          "name": "role",
          "type": "bytes32"
        }
      ],
      "name": "getRoleAdmin",
      "outputs": [
        {
          "internalType": "bytes32",
          "name": "",
          "type": "bytes32"
        }
      ],
      "stateMutability": "view",
      "type": "function"
    },
    {
      "inputs": [
        {
          "internalType": "bytes32",
          "name": "id",
          "type": "bytes32"
        }
      ],
      "name": "getTimestamp",
      "outputs": [
        {
          "internalType": "uint256",
          "name": "",
          "type": "uint256"
        }
      ],
      "stateMutability": "view",
      "type": "function"
    },
    {
      "inputs": [
        {
          "internalType": "bytes32",
          "name": "role",
          "type": "bytes32"
        },
        {
          "internalType": "address",
          "name": "account",
          "type": "address"
        }
      ],
      "name": "grantRole",
      "outputs": [],
      "stateMutability": "nonpayable",
      "type": "function"
    },
    {
      "inputs": [
        {
          "internalType": "bytes32",
          "name": "role",
          "type": "bytes32"
        },
        {
          "internalType": "address",
          "name": "account",
          "type": "address"
        }
      ],
      "name": "hasRole",
      "outputs": [
        {
          "internalType": "bool",
          "name": "",
          "type": "bool"
        }
      ],
      "stateMutability": "view",
      "type": "function"
    },
    {
      "inputs": [
        {
          "internalType": "address",
          "name": "target",
          "type": "address"
        },
        {
          "internalType": "uint256",
          "name": "value",
          "type": "uint256"
        },
        {
          "internalType": "bytes",
          "name": "data",
          "type": "bytes"
        },
        {
          "internalType": "bytes32",
          "name": "predecessor",
          "type": "bytes32"
        },
        {
          "internalType": "bytes32",
          "name": "salt",
          "type": "bytes32"
        }
      ],
      "name": "hashOperation",
      "outputs": [
        {
          "internalType": "bytes32",
          "name": "",
          "type": "bytes32"
        }
      ],
      "stateMutability": "pure",
      "type": "function"
    },
    {
      "inputs": [
        {
          "internalType": "address[]",
          "name": "targets",
          "type": "address[]"
        },
        {
          "internalType": "uint256[]",
          "name": "values",
          "type": "uint256[]"
        },
        {
          "internalType": "bytes[]",
          "name": "payloads",
          "type": "bytes[]"
        },
        {
          "internalType": "bytes32",
          "name": "predecessor",
          "type": "bytes32"
        },
        {
          "internalType": "bytes32",
          "name": "salt",
          "type": "bytes32"
        }
      ],
      "name": "hashOperationBatch",
      "outputs": [
        {
          "internalType": "bytes32",
          "name": "",
          "type": "bytes32"
        }
      ],
      "stateMutability": "pure",
      "type": "function"
    },
    {
      "inputs": [
        {
          "internalType": "bytes32",
          "name": "id",
          "type": "bytes32"
        }
      ],
      "name": "isOperation",
      "outputs": [
        {
          "internalType": "bool",
          "name": "",
          "type": "bool"
        }
      ],
      "stateMutability": "view",
      "type": "function"
    },
    {
      "inputs": [
        {
          "internalType": "bytes32",
          "name": "id",
          "type": "bytes32"
        }
      ],
      "name": "isOperationDone",
      "outputs": [
        {
          "internalType": "bool",
          "name": "",
          "type": "bool"
        }
      ],
      "stateMutability": "view",
      "type": "function"
    },
    {
      "inputs": [
        {
          "internalType": "bytes32",
          "name": "id",
          "type": "bytes32"
        }
      ],
      "name": "isOperationPending",
      "outputs": [
        {
          "internalType": "bool",
          "name": "",
          "type": "bool"
        }
      ],
      "stateMutability": "view",
      "type": "function"
    },
    {
      "inputs": [
        {
          "internalType": "bytes32",
          "name": "id",
          "type": "bytes32"
        }
      ],
      "name": "isOperationReady",
      "outputs": [
        {
          "internalType": "bool",
          "name": "",
          "type": "bool"
        }
      ],
      "stateMutability": "view",
      "type": "function"
    },
    {
      "inputs": [
        {
          "internalType": "address",
          "name": "",
          "type": "address"
        },
        {
          "internalType": "address",
          "name": "",
          "type": "address"
        },
        {
          "internalType": "uint256[]",
          "name": "",
          "type": "uint256[]"
        },
        {
          "internalType": "uint256[]",
          "name": "",
          "type": "uint256[]"
        },
        {
          "internalType": "bytes",
          "name": "",
          "type": "bytes"
        }
      ],
      "name": "onERC1155BatchReceived",
      "outputs": [
        {
          "internalType": "bytes4",
          "name": "",
          "type": "bytes4"
        }
      ],
      "stateMutability": "nonpayable",
      "type": "function"
    },
    {
      "inputs": [
        {
          "internalType": "address",
          "name": "",
          "type": "address"
        },
        {
          "internalType": "address",
          "name": "",
          "type": "address"
        },
        {
          "internalType": "uint256",
          "name": "",
          "type": "uint256"
        },
        {
          "internalType": "uint256",
          "name": "",
          "type": "uint256"
        },
        {
          "internalType": "bytes",
          "name": "",
          "type": "bytes"
        }
      ],
      "name": "onERC1155Received",
      "outputs": [
        {
          "internalType": "bytes4",
          "name": "",
          "type": "bytes4"
        }
      ],
      "stateMutability": "nonpayable",
      "type": "function"
    },
    {
      "inputs": [
        {
          "internalType": "address",
          "name": "",
          "type": "address"
        },
        {
          "internalType": "address",
          "name": "",
          "type": "address"
        },
        {
          "internalType": "uint256",
          "name": "",
          "type": "uint256"
        },
        {
          "internalType": "bytes",
          "name": "",
          "type": "bytes"
        }
      ],
      "name": "onERC721Received",
      "outputs": [
        {
          "internalType": "bytes4",
          "name": "",
          "type": "bytes4"
        }
      ],
      "stateMutability": "nonpayable",
      "type": "function"
    },
    {
      "inputs": [
        {
          "internalType": "bytes32",
          "name": "role",
          "type": "bytes32"
        },
        {
          "internalType": "address",
          "name": "account",
          "type": "address"
        }
      ],
      "name": "renounceRole",
      "outputs": [],
      "stateMutability": "nonpayable",
      "type": "function"
    },
    {
      "inputs": [
        {
          "internalType": "bytes32",
          "name": "role",
          "type": "bytes32"
        },
        {
          "internalType": "address",
          "name": "account",
          "type": "address"
        }
      ],
      "name": "revokeRole",
      "outputs": [],
      "stateMutability": "nonpayable",
      "type": "function"
    },
    {
      "inputs": [
        {
          "internalType": "address",
          "name": "target",
          "type": "address"
        },
        {
          "internalType": "uint256",
          "name": "value",
          "type": "uint256"
        },
        {
          "internalType": "bytes",
          "name": "data",
          "type": "bytes"
        },
        {
          "internalType": "bytes32",
          "name": "predecessor",
          "type": "bytes32"
        },
        {
          "internalType": "bytes32",
          "name": "salt",
          "type": "bytes32"
        },
        {
          "internalType": "uint256",
          "name": "delay",
          "type": "uint256"
        }
      ],
      "name": "schedule",
      "outputs": [],
      "stateMutability": "nonpayable",
      "type": "function"
    },
    {
      "inputs": [
        {
          "internalType": "address[]",
          "name": "targets",
          "type": "address[]"
        },
        {
          "internalType": "uint256[]",
          "name": "values",
          "type": "uint256[]"
        },
        {
          "internalType": "bytes[]",
          "name": "payloads",
          "type": "bytes[]"
        },
        {
          "internalType": "bytes32",
          "name": "predecessor",
          "type": "bytes32"
        },
        {
          "internalType": "bytes32",
          "name": "salt",
          "type": "bytes32"
        },
        {
          "internalType": "uint256",
          "name": "delay",
          "type": "uint256"
        }
      ],
      "name": "scheduleBatch",
      "outputs": [],
      "stateMutability": "nonpayable",
      "type": "function"
    },
    {
      "inputs": [
        {
          "internalType": "bytes4",
          "name": "interfaceId",
          "type": "bytes4"
        }
      ],
      "name": "supportsInterface",
      "outputs": [
        {
          "internalType": "bool",
          "name": "",
          "type": "bool"
        }
      ],
      "stateMutability": "view",
      "type": "function"
    },
    {
      "inputs": [
        {
          "internalType": "uint256",
          "name": "newDelay",
          "type": "uint256"
        }
      ],
      "name": "updateDelay",
      "outputs": [],
      "stateMutability": "nonpayable",
      "type": "function"
    },
    {
      "stateMutability": "payable",
      "type": "receive"
    }
  ],
  "bytecode": "0x60806040523480156200001157600080fd5b50604051620022e9380380620022e98339810160408190526200003491620003ff565b8383838362000053600080516020620022698339815191528062000221565b6200007d600080516020620022898339815191526000805160206200226983398151915262000221565b620000a7600080516020620022a98339815191526000805160206200226983398151915262000221565b620000d1600080516020620022c98339815191526000805160206200226983398151915262000221565b620000ec60008051602062002269833981519152306200026c565b6001600160a01b0381161562000117576200011760008051602062002269833981519152826200026c565b60005b8351811015620001935762000161600080516020620022898339815191528583815181106200014d576200014d62000486565b60200260200101516200026c60201b60201c565b6200018a600080516020620022c98339815191528583815181106200014d576200014d62000486565b6001016200011a565b5060005b8251811015620001d357620001ca600080516020620022a98339815191528483815181106200014d576200014d62000486565b60010162000197565b5060028490556040805160008152602081018690527f11c24f4ead16507c69ac467fbd5e4eed5fb5c699626d2cc6d66421df253886d5910160405180910390a150505050505050506200049c565b600082815260208190526040808220600101805490849055905190918391839186917fbd79b86ffe0ab8e8776151514217cd7cacd52c909f66475c3af44e129f0b00ff9190a4505050565b6200027882826200027c565b5050565b6000828152602081815260408083206001600160a01b038516845290915290205460ff1662000278576000828152602081815260408083206001600160a01b03851684529091529020805460ff19166001179055620002d83390565b6001600160a01b0316816001600160a01b0316837f2f8788117e7eff1d82e926ec794901d17c78024a50270940304540a733656f0d60405160405180910390a45050565b634e487b7160e01b600052604160045260246000fd5b80516001600160a01b03811681146200034a57600080fd5b919050565b600082601f8301126200036157600080fd5b815160206001600160401b03808311156200038057620003806200031c565b8260051b604051601f19603f83011681018181108482111715620003a857620003a86200031c565b6040529384526020818701810194908101925087851115620003c957600080fd5b6020870191505b84821015620003f457620003e48262000332565b83529183019190830190620003d0565b979650505050505050565b600080600080608085870312156200041657600080fd5b845160208601519094506001600160401b03808211156200043657600080fd5b62000444888389016200034f565b945060408701519150808211156200045b57600080fd5b506200046a878288016200034f565b9250506200047b6060860162000332565b905092959194509250565b634e487b7160e01b600052603260045260246000fd5b611dbd80620004ac6000396000f3fe60806040526004361061017b5760003560e01c80638065657f116100cc578063bc197c811161007a578063bc197c81146104c9578063c4d252f5146104f5578063d45c443514610515578063d547741f14610542578063e38335e514610562578063f23a6e6114610575578063f27a0c92146105a157600080fd5b80638065657f146103cc5780638f2a0bb0146103ec5780638f61f4f51461040c57806391d1485414610440578063a217fddf14610460578063b08e51c014610475578063b1c5f427146104a957600080fd5b8063248a9ca311610129578063248a9ca3146102cb5780632ab0f529146102fb5780632f2ff15d1461032c57806331d507501461034c57806336568abe1461036c578063584b153e1461038c57806364d62353146103ac57600080fd5b806301d5062a1461018757806301ffc9a7146101a957806307bd0265146101de5780630d3cf6fc14610220578063134008d31461025457806313bc9f2014610267578063150b7a021461028757600080fd5b3661018257005b600080fd5b34801561019357600080fd5b506101a76101a23660046113f4565b6105b6565b005b3480156101b557600080fd5b506101c96101c4366004611468565b61068c565b60405190151581526020015b60405180910390f35b3480156101ea57600080fd5b506102127fd8aa0f3194971a2a116679f7c2090f6939c8d4e01a2a8d7e41d55e5351469e6381565b6040519081526020016101d5565b34801561022c57600080fd5b506102127f5f58e3a2316349923ce3780f8d587db2d72378aed66a8261c916544fa6846ca581565b6101a7610262366004611492565b6106b7565b34801561027357600080fd5b506101c96102823660046114fd565b61076c565b34801561029357600080fd5b506102b26102a23660046115cb565b630a85bd0160e11b949350505050565b6040516001600160e01b031990911681526020016101d5565b3480156102d757600080fd5b506102126102e63660046114fd565b60009081526020819052604090206001015490565b34801561030757600080fd5b506101c96103163660046114fd565b6000908152600160208190526040909120541490565b34801561033857600080fd5b506101a7610347366004611632565b610792565b34801561035857600080fd5b506101c96103673660046114fd565b6107bc565b34801561037857600080fd5b506101a7610387366004611632565b6107d5565b34801561039857600080fd5b506101c96103a73660046114fd565b610858565b3480156103b857600080fd5b506101a76103c73660046114fd565b61086e565b3480156103d857600080fd5b506102126103e7366004611492565b610912565b3480156103f857600080fd5b506101a76104073660046116a2565b610951565b34801561041857600080fd5b506102127fb09aa5aeb3702cfd50b6b62bc4532604938f21248a27a1d5ca736082b6819cc181565b34801561044c57600080fd5b506101c961045b366004611632565b610adc565b34801561046c57600080fd5b50610212600081565b34801561048157600080fd5b506102127ffd643c72710c63c0180259aba6b2d05451e3591a24e58b62239378085726f78381565b3480156104b557600080fd5b506102126104c4366004611753565b610b05565b3480156104d557600080fd5b506102b26104e436600461187a565b63bc197c8160e01b95945050505050565b34801561050157600080fd5b506101a76105103660046114fd565b610b4a565b34801561052157600080fd5b506102126105303660046114fd565b60009081526001602052604090205490565b34801561054e57600080fd5b506101a761055d366004611632565b610c1f565b6101a7610570366004611753565b610c44565b34801561058157600080fd5b506102b2610590366004611923565b63f23a6e6160e01b95945050505050565b3480156105ad57600080fd5b50600254610212565b7fb09aa5aeb3702cfd50b6b62bc4532604938f21248a27a1d5ca736082b6819cc16105e081610dc8565b60006105f0898989898989610912565b90506105fc8184610dd5565b6000817f4cf4410cc57040e44862ef0f45f3dd5a5e02db8eb8add648d4b0e236f1d07dca8b8b8b8b8b8a604051610638969594939291906119b0565b60405180910390a3831561068157807f20fda5fd27a1ea7bf5b9567f143ac5470bb059374a27e8f67cb44f946f6d03878560405161067891815260200190565b60405180910390a25b505050505050505050565b60006001600160e01b03198216630271189760e51b14806106b157506106b182610ec4565b92915050565b7fd8aa0f3194971a2a116679f7c2090f6939c8d4e01a2a8d7e41d55e5351469e636106e3816000610adc565b6106f1576106f18133610ef9565b6000610701888888888888610912565b905061070d8185610f52565b61071988888888610fee565b6000817fc2617efa69bab66782fa219543714338489c4e9e178271560a91b82c3f612b588a8a8a8a60405161075194939291906119ed565b60405180910390a3610762816110c1565b5050505050505050565b60008181526001602052604081205460018111801561078b5750428111155b9392505050565b6000828152602081905260409020600101546107ad81610dc8565b6107b783836110fa565b505050565b60008181526001602052604081205481905b1192915050565b6001600160a01b038116331461084a5760405162461bcd60e51b815260206004820152602f60248201527f416363657373436f6e74726f6c3a2063616e206f6e6c792072656e6f756e636560448201526e103937b632b9903337b91039b2b63360891b60648201526084015b60405180910390fd5b610854828261117e565b5050565b60008181526001602081905260408220546107ce565b3330146108d15760405162461bcd60e51b815260206004820152602b60248201527f54696d656c6f636b436f6e74726f6c6c65723a2063616c6c6572206d7573742060448201526a62652074696d656c6f636b60a81b6064820152608401610841565b60025460408051918252602082018390527f11c24f4ead16507c69ac467fbd5e4eed5fb5c699626d2cc6d66421df253886d5910160405180910390a1600255565b600086868686868660405160200161092f969594939291906119b0565b6040516020818303038152906040528051906020012090509695505050505050565b7fb09aa5aeb3702cfd50b6b62bc4532604938f21248a27a1d5ca736082b6819cc161097b81610dc8565b88871461099a5760405162461bcd60e51b815260040161084190611a1f565b8885146109b95760405162461bcd60e51b815260040161084190611a1f565b60006109cb8b8b8b8b8b8b8b8b610b05565b90506109d78184610dd5565b60005b8a811015610a8d5780827f4cf4410cc57040e44862ef0f45f3dd5a5e02db8eb8add648d4b0e236f1d07dca8e8e85818110610a1757610a17611a62565b9050602002016020810190610a2c9190611a78565b8d8d86818110610a3e57610a3e611a62565b905060200201358c8c87818110610a5757610a57611a62565b9050602002810190610a699190611a93565b8c8b604051610a7d969594939291906119b0565b60405180910390a36001016109da565b508315610acf57807f20fda5fd27a1ea7bf5b9567f143ac5470bb059374a27e8f67cb44f946f6d038785604051610ac691815260200190565b60405180910390a25b5050505050505050505050565b6000918252602082815260408084206001600160a01b0393909316845291905290205460ff1690565b60008888888888888888604051602001610b26989796959493929190611b6f565b60405160208183030381529060405280519060200120905098975050505050505050565b7ffd643c72710c63c0180259aba6b2d05451e3591a24e58b62239378085726f783610b7481610dc8565b610b7d82610858565b610be35760405162461bcd60e51b815260206004820152603160248201527f54696d656c6f636b436f6e74726f6c6c65723a206f7065726174696f6e2063616044820152701b9b9bdd0818994818d85b98d95b1b1959607a1b6064820152608401610841565b6000828152600160205260408082208290555183917fbaa1eb22f2a492ba1a5fea61b8df4d27c6c8b5f3971e63bb58fa14ff72eedb7091a25050565b600082815260208190526040902060010154610c3a81610dc8565b6107b7838361117e565b7fd8aa0f3194971a2a116679f7c2090f6939c8d4e01a2a8d7e41d55e5351469e63610c70816000610adc565b610c7e57610c7e8133610ef9565b878614610c9d5760405162461bcd60e51b815260040161084190611a1f565b878414610cbc5760405162461bcd60e51b815260040161084190611a1f565b6000610cce8a8a8a8a8a8a8a8a610b05565b9050610cda8185610f52565b60005b89811015610db25760008b8b83818110610cf957610cf9611a62565b9050602002016020810190610d0e9190611a78565b905060008a8a84818110610d2457610d24611a62565b9050602002013590503660008a8a86818110610d4257610d42611a62565b9050602002810190610d549190611a93565b91509150610d6484848484610fee565b84867fc2617efa69bab66782fa219543714338489c4e9e178271560a91b82c3f612b5886868686604051610d9b94939291906119ed565b60405180910390a350505050806001019050610cdd565b50610dbc816110c1565b50505050505050505050565b610dd28133610ef9565b50565b610dde826107bc565b15610e435760405162461bcd60e51b815260206004820152602f60248201527f54696d656c6f636b436f6e74726f6c6c65723a206f7065726174696f6e20616c60448201526e1c9958591e481cd8da19591d5b1959608a1b6064820152608401610841565b600254811015610ea45760405162461bcd60e51b815260206004820152602660248201527f54696d656c6f636b436f6e74726f6c6c65723a20696e73756666696369656e746044820152652064656c617960d01b6064820152608401610841565b610eae8142611c26565b6000928352600160205260409092209190915550565b60006001600160e01b03198216637965db0b60e01b14806106b157506301ffc9a760e01b6001600160e01b03198316146106b1565b610f038282610adc565b61085457610f10816111e3565b610f1b8360206111f5565b604051602001610f2c929190611c5d565b60408051601f198184030181529082905262461bcd60e51b825261084191600401611ccc565b610f5b8261076c565b610f775760405162461bcd60e51b815260040161084190611cff565b801580610f935750600081815260016020819052604090912054145b6108545760405162461bcd60e51b815260206004820152602660248201527f54696d656c6f636b436f6e74726f6c6c65723a206d697373696e6720646570656044820152656e64656e637960d01b6064820152608401610841565b6000846001600160a01b031684848460405161100b929190611d49565b60006040518083038185875af1925050503d8060008114611048576040519150601f19603f3d011682016040523d82523d6000602084013e61104d565b606091505b50509050806110ba5760405162461bcd60e51b815260206004820152603360248201527f54696d656c6f636b436f6e74726f6c6c65723a20756e6465726c79696e6720746044820152721c985b9cd858dd1a5bdb881c995d995c9d1959606a1b6064820152608401610841565b5050505050565b6110ca8161076c565b6110e65760405162461bcd60e51b815260040161084190611cff565b600090815260016020819052604090912055565b6111048282610adc565b610854576000828152602081815260408083206001600160a01b03851684529091529020805460ff1916600117905561113a3390565b6001600160a01b0316816001600160a01b0316837f2f8788117e7eff1d82e926ec794901d17c78024a50270940304540a733656f0d60405160405180910390a45050565b6111888282610adc565b15610854576000828152602081815260408083206001600160a01b0385168085529252808320805460ff1916905551339285917ff6391f5c32d9c69d2a47ea670b442974b53935d1edc7fd64eb21e047a839171b9190a45050565b60606106b16001600160a01b03831660145b60606000611204836002611d59565b61120f906002611c26565b6001600160401b0381111561122657611226611516565b6040519080825280601f01601f191660200182016040528015611250576020820181803683370190505b509050600360fc1b8160008151811061126b5761126b611a62565b60200101906001600160f81b031916908160001a905350600f60fb1b8160018151811061129a5761129a611a62565b60200101906001600160f81b031916908160001a90535060006112be846002611d59565b6112c9906001611c26565b90505b6001811115611341576f181899199a1a9b1b9c1cb0b131b232b360811b85600f16601081106112fd576112fd611a62565b1a60f81b82828151811061131357611313611a62565b60200101906001600160f81b031916908160001a90535060049490941c9361133a81611d70565b90506112cc565b50831561078b5760405162461bcd60e51b815260206004820181905260248201527f537472696e67733a20686578206c656e67746820696e73756666696369656e746044820152606401610841565b80356001600160a01b03811681146113a757600080fd5b919050565b60008083601f8401126113be57600080fd5b5081356001600160401b038111156113d557600080fd5b6020830191508360208285010111156113ed57600080fd5b9250929050565b600080600080600080600060c0888a03121561140f57600080fd5b61141888611390565b96506020880135955060408801356001600160401b0381111561143a57600080fd5b6114468a828b016113ac565b989b979a50986060810135976080820135975060a09091013595509350505050565b60006020828403121561147a57600080fd5b81356001600160e01b03198116811461078b57600080fd5b60008060008060008060a087890312156114ab57600080fd5b6114b487611390565b95506020870135945060408701356001600160401b038111156114d657600080fd5b6114e289828a016113ac565b979a9699509760608101359660809091013595509350505050565b60006020828403121561150f57600080fd5b5035919050565b634e487b7160e01b600052604160045260246000fd5b604051601f8201601f191681016001600160401b038111828210171561155457611554611516565b604052919050565b600082601f83011261156d57600080fd5b81356001600160401b0381111561158657611586611516565b611599601f8201601f191660200161152c565b8181528460208386010111156115ae57600080fd5b816020850160208301376000918101602001919091529392505050565b600080600080608085870312156115e157600080fd5b6115ea85611390565b93506115f860208601611390565b92506040850135915060608501356001600160401b0381111561161a57600080fd5b6116268782880161155c565b91505092959194509250565b6000806040838503121561164557600080fd5b8235915061165560208401611390565b90509250929050565b60008083601f84011261167057600080fd5b5081356001600160401b0381111561168757600080fd5b6020830191508360208260051b85010111156113ed57600080fd5b600080600080600080600080600060c08a8c0312156116c057600080fd5b89356001600160401b03808211156116d757600080fd5b6116e38d838e0161165e565b909b50995060208c01359150808211156116fc57600080fd5b6117088d838e0161165e565b909950975060408c013591508082111561172157600080fd5b5061172e8c828d0161165e565b9a9d999c50979a969997986060880135976080810135975060a0013595509350505050565b60008060008060008060008060a0898b03121561176f57600080fd5b88356001600160401b038082111561178657600080fd5b6117928c838d0161165e565b909a50985060208b01359150808211156117ab57600080fd5b6117b78c838d0161165e565b909850965060408b01359150808211156117d057600080fd5b506117dd8b828c0161165e565b999c989b509699959896976060870135966080013595509350505050565b600082601f83011261180c57600080fd5b813560206001600160401b0382111561182757611827611516565b8160051b61183682820161152c565b928352848101820192828101908785111561185057600080fd5b83870192505b8483101561186f57823582529183019190830190611856565b979650505050505050565b600080600080600060a0868803121561189257600080fd5b61189b86611390565b94506118a960208701611390565b935060408601356001600160401b03808211156118c557600080fd5b6118d189838a016117fb565b945060608801359150808211156118e757600080fd5b6118f389838a016117fb565b9350608088013591508082111561190957600080fd5b506119168882890161155c565b9150509295509295909350565b600080600080600060a0868803121561193b57600080fd5b61194486611390565b945061195260208701611390565b9350604086013592506060860135915060808601356001600160401b0381111561197b57600080fd5b6119168882890161155c565b81835281816020850137506000828201602090810191909152601f909101601f19169091010190565b60018060a01b038716815285602082015260a0604082015260006119d860a083018688611987565b60608301949094525060800152949350505050565b60018060a01b0385168152836020820152606060408201526000611a15606083018486611987565b9695505050505050565b60208082526023908201527f54696d656c6f636b436f6e74726f6c6c65723a206c656e677468206d69736d616040820152620e8c6d60eb1b606082015260800190565b634e487b7160e01b600052603260045260246000fd5b600060208284031215611a8a57600080fd5b61078b82611390565b6000808335601e19843603018112611aaa57600080fd5b8301803591506001600160401b03821115611ac457600080fd5b6020019150368190038213156113ed57600080fd5b6000838385526020808601955060208560051b8301018460005b87811015611b6257848303601f19018952813536889003601e19018112611b1957600080fd5b870184810190356001600160401b03811115611b3457600080fd5b803603821315611b4357600080fd5b611b4e858284611987565b9a86019a9450505090830190600101611af3565b5090979650505050505050565b60a0808252810188905260008960c08301825b8b811015611bb0576001600160a01b03611b9b84611390565b16825260209283019290910190600101611b82565b5083810360208501528881526001600160fb1b03891115611bd057600080fd5b8860051b9150818a60208301370182810360209081016040850152611bf89082018789611ad9565b60608401959095525050608001529695505050505050565b634e487b7160e01b600052601160045260246000fd5b808201808211156106b1576106b1611c10565b60005b83811015611c54578181015183820152602001611c3c565b50506000910152565b76020b1b1b2b9b9a1b7b73a3937b61d1030b1b1b7bab73a1604d1b815260008351611c8f816017850160208801611c39565b7001034b99036b4b9b9b4b733903937b6329607d1b6017918401918201528351611cc0816028840160208801611c39565b01602801949350505050565b6020815260008251806020840152611ceb816040850160208701611c39565b601f01601f19169190910160400192915050565b6020808252602a908201527f54696d656c6f636b436f6e74726f6c6c65723a206f7065726174696f6e206973604082015269206e6f7420726561647960b01b606082015260800190565b8183823760009101908152919050565b80820281158282048414176106b1576106b1611c10565b600081611d7f57611d7f611c10565b50600019019056fea2646970667358221220f7c55dd66a1817e1cb25cbfaa76e193e2505d7b624f00846fda693b9c9176dee64736f6c634300081800335f58e3a2316349923ce3780f8d587db2d72378aed66a8261c916544fa6846ca5b09aa5aeb3702cfd50b6b62bc4532604938f21248a27a1d5ca736082b6819cc1d8aa0f3194971a2a116679f7c2090f6939c8d4e01a2a8d7e41d55e5351469e63fd643c72710c63c0180259aba6b2d05451e3591a24e58b62239378085726f783",
  "linkReferences": {},
  "deployedLinkReferences": {}
}