{
  "_format": "hh-sol-artifact-1",
  "contractName": "GovernanceToken",
  "sourceName": "contracts/GovernanceToken.sol",
  "abi": [
    {
      "inputs": [],
      "stateMutability": "nonpayable",
      "type": "constructor"
    },
    {
      "inputs": [],
      "name": "InvalidShortString",
      "type": "error"
    },
    {
      "inputs": [
        {
          "internalType": "string",
          "name": "str",
          "type": "string"
        }
      ],
      "name": "StringTooLong",
      "type": "error"
    },
    {
      "anonymous": false,
      "inputs": [
        {
          "indexed": true,
          "internalType": "address",
          "name": "owner",
          "type": "address"
        },
        {
          "indexed": true,
          "internalType": "address",
          "name": "spender",
          "type": "address"
        },
        {
          "indexed": false,
          "internalType": "uint256",
          "name": "value",
          "type": "uint256"
        }
      ],
      "name": "Approval",
      "type": "event"
    },
    {
      "anonymous": false,
      "inputs": [
        {
          "indexed": true,
          "internalType": "address",
          "name": "delegator",
          "type": "address"
        },
        {
          "indexed": true,
          "internalType": "address",
          "name": "fromDelegate",
          "type": "address"
        },
        {
          "indexed": true,
          "internalType": "address",
          "name": "toDelegate",
          "type": "address"
        }
      ],
      "name": "DelegateChanged",
      "type": "event"
    },
    {
      "anonymous": false,
      "inputs": [
        {
          "indexed": true,
          "internalType": "address",
          "name": "delegate",
          "type": "address"
        },
        {
          "indexed": false,
          "internalType": "uint256",
          "name": "previousBalance",
          "type": "uint256"
        },
        {
          "indexed": false,
          "internalType": "uint256",
          "name": "newBalance",
          "type": "uint256"
        }
      ],
      "name": "DelegateVotesChanged",
      "type": "event"
    },
    {
      "anonymous": false,
      "inputs": [],
      "name": "EIP712DomainChanged",
      "type": "event"
    },
    {
      "anonymous": false,
      "inputs": [
        {
          "indexed": true,
          "internalType": "address",
          "name": "from",
          "type": "address"
        },
        {
          "indexed": true,
          "internalType": "address",
          "name": "to",
          "type": "address"
        },
        {
          "indexed": false,
          "internalType": "uint256",
          "name": "value",
          "type": "uint256"
        }
      ],
      "name": "Transfer",
      "type": "event"
    },
    {
      "inputs": [],
      "name": "CLOCK_MODE",
      "outputs": [
        {
          "internalType": "string",
          "name": "",
          "type": "string"
        }
      ],
      "stateMutability": "view",
      "type": "function"
    },
    {
      "inputs": [],
      "name": "DOMAIN_SEPARATOR",
      "outputs": [
        {
          "internalType": "bytes32",
          "name": "",
          "type": "bytes32"
        }
      ],
      "stateMutability": "view",
      "type": "function"
    },
    {
      "inputs": [
        {
          "internalType": "address",
          "name": "owner",
          "type": "address"
        },
        {
          "internalType": "address",
          "name": "spender",
          "type": "address"
        }
      ],
      "name": "allowance",
      "outputs": [
        {
          "internalType": "uint256",
          "name": "",
          "type": "uint256"
        }
      ],
      "stateMutability": "view",
      "type": "function"
    },
    {
      "inputs": [
        {
          "internalType": "address",
          "name": "spender",
          "type": "address"
        },
        {
          "internalType": "uint256",
          "name": "amount",
          "type": "uint256"
        }
      ],
      "name": "approve",
      "outputs": [
        {
          "internalType": "bool",
          "name": "",
          "type": "bool"
        }
      ],
      "stateMutability": "nonpayable",
      "type": "function"
    },
    {
      "inputs": [
        {
          "internalType": "address",
          "name": "account",
          "type": "address"
        }
      ],
      "name": "balanceOf",
      "outputs": [
        {
          "internalType": "uint256",
          "name": "",
          "type": "uint256"
        }
      ],
      "stateMutability": "view",
      "type": "function"
    },
    {
      "inputs": [
        {
          "internalType": "address",
          "name": "account",
          "type": "address"
        },
        {
          "internalType": "uint32",
          "name": "pos",
          "type": "uint32"
        }
      ],
      "name": "checkpoints",
      "outputs": [
        {
          "components": [
            {
              "internalType": "uint32",
              "name": "fromBlock",
              "type": "uint32"
            },
            {
              "internalType": "uint224",
              "name": "votes",
              "type": "uint224"
            }
          ],
          "internalType": "struct ERC20Votes.Checkpoint",
          "name": "",
          "type": "tuple"
        }
      ],
      "stateMutability": "view",
      "type": "function"
    },
    {
      "inputs": [],
      "name": "clock",
      "outputs": [
        {
          "internalType": "uint48",
          "name": "",
          "type": "uint48"
        }
      ],
      "stateMutability": "view",
      "type": "function"
    },
    {
      "inputs": [],
      "name": "decimals",
      "outputs": [
        {
          "internalType": "uint8",
          "name": "",
          "type": "uint8"
        }
      ],
      "stateMutability": "view",
      "type": "function"
    },
    {
      "inputs": [
        {
          "internalType": "address",
          "name": "spender",
          "type": "address"
        },
        {
          "internalType": "uint256",
          "name": "subtractedValue",
          "type": "uint256"
        }
      ],
      "name": "decreaseAllowance",
      "outputs": [
        {
          "internalType": "bool",
          "name": "",
          "type": "bool"
        }
      ],
      "stateMutability": "nonpayable",
      "type": "function"
    },
    {
      "inputs": [
        {
          "internalType": "address",
          "name": "delegatee",
          "type": "address"
        }
      ],
      "name": "delegate",
      "outputs": [],
      "stateMutability": "nonpayable",
      "type": "function"
    },
    {
      "inputs": [
        {
          "internalType": "address",
          "name": "delegatee",
          "type": "address"
        },
        {
          "internalType": "uint256",
          "name": "nonce",
          "type": "uint256"
        },
        {
          "internalType": "uint256",
          "name": "expiry",
          "type": "uint256"
        },
        {
          "internalType": "uint8",
          "name": "v",
          "type": "uint8"
        },
        {
          "internalType": "bytes32",
          "name": "r",
          "type": "bytes32"
        },
        {
          "internalType": "bytes32",
          "name": "s",
          "type": "bytes32"
        }
      ],
      "name": "delegateBySig",
      "outputs": [],
      "stateMutability": "nonpayable",
      "type": "function"
    },
    {
      "inputs": [
        {
          "internalType": "address",
          "name": "account",
          "type": "address"
        }
      ],
      "name": "delegates",
      "outputs": [
        {
          "internalType": "address",
          "name": "",
          "type": "address"
        }
      ],
      "stateMutability": "view",
      "type": "function"
    },
    {
      "inputs": [],
      "name": "eip712Domain",
      "outputs": [
        {
          "internalType": "bytes1",
          "name": "fields",
          "type": "bytes1"
        },
        {
          "internalType": "string",
          "name": "name",
          "type": "string"
        },
        {
          "internalType": "string",
          "name": "version",
          "type": "string"
        },
        {
          "internalType": "uint256",
          "name": "chainId",
          "type": "uint256"
        },
        {
          "internalType": "address",
          "name": "verifyingContract",
          "type": "address"
        },
        {
          "internalType": "bytes32",
          "name": "salt",
          "type": "bytes32"
        },
        {
          "internalType": "uint256[]",
          "name": "extensions",
          "type": "uint256[]"
        }
      ],
      "stateMutability": "view",
      "type": "function"
    },
    {
      "inputs": [
        {
          "internalType": "uint256",
          "name": "timepoint",
          "type": "uint256"
        }
      ],
      "name": "getPastTotalSupply",
      "outputs": [
        {
          "internalType": "uint256",
          "name": "",
          "type": "uint256"
        }
      ],
      "stateMutability": "view",
      "type": "function"
    },
    {
      "inputs": [
        {
          "internalType": "address",
          "name": "account",
          "type": "address"
        },
        {
          "internalType": "uint256",
          "name": "timepoint",
          "type": "uint256"
        }
      ],
      "name": "getPastVotes",
      "outputs": [
        {
          "internalType": "uint256",
          "name": "",
          "type": "uint256"
        }
      ],
      "stateMutability": "view",
      "type": "function"
    },
    {
      "inputs": [
        {
          "internalType": "address",
          "name": "account",
          "type": "address"
        }
      ],
      "name": "getVotes",
      "outputs": [
        {
          "internalType": "uint256",
          "name": "",
          "type": "uint256"
        }
      ],
      "stateMutability": "view",
      "type": "function"
    },
    {
      "inputs": [
        {
          "internalType": "address",
          "name": "spender",
          "type": "address"
        },
        {
          "internalType": "uint256",
          "name": "addedValue",
          "type": "uint256"
        }
      ],
      "name": "increaseAllowance",
      "outputs": [
        {
          "internalType": "bool",
          "name": "",
          "type": "bool"
        }
      ],
      "stateMutability": "nonpayable",
      "type": "function"
    },
    {
      "inputs": [],
      "name": "name",
      "outputs": [
        {
          "internalType": "string",
          "name": "",
          "type": "string"
        }
      ],
      "stateMutability": "view",
      "type": "function"
    },
    {
      "inputs": [
        {
          "internalType": "address",
          "name": "owner",
          "type": "address"
        }
      ],
      "name": "nonces",
      "outputs": [
        {
          "internalType": "uint256",
          "name": "",
          "type": "uint256"
        }
      ],
      "stateMutability": "view",
      "type": "function"
    },
    {
      "inputs": [
        {
          "internalType": "address",
          "name": "account",
          "type": "address"
        }
      ],
      "name": "numCheckpoints",
      "outputs": [
        {
          "internalType": "uint32",
          "name": "",
          "type": "uint32"
        }
      ],
      "stateMutability": "view",
      "type": "function"
    },
    {
      "inputs": [
        {
          "internalType": "address",
          "name": "owner",
          "type": "address"
        },
        {
          "internalType": "address",
          "name": "spender",
          "type": "address"
        },
        {
          "internalType": "uint256",
          "name": "value",
          "type": "uint256"
        },
        {
          "internalType": "uint256",
          "name": "deadline",
          "type": "uint256"
        },
        {
          "internalType": "uint8",
          "name": "v",
          "type": "uint8"
        },
        {
          "internalType": "bytes32",
          "name": "r",
          "type": "bytes32"
        },
        {
          "internalType": "bytes32",
          "name": "s",
          "type": "bytes32"
        }
      ],
      "name": "permit",
      "outputs": [],
      "stateMutability": "nonpayable",
      "type": "function"
    },
    {
      "inputs": [],
      "name": "symbol",
      "outputs": [
        {
          "internalType": "string",
          "name": "",
          "type": "string"
        }
      ],
      "stateMutability": "view",
      "type": "function"
    },
    {
      "inputs": [],
      "name": "totalSupply",
      "outputs": [
        {
          "internalType": "uint256",
          "name": "",
          "type": "uint256"
        }
      ],
      "stateMutability": "view",
      "type": "function"
    },
    {
      "inputs": [
        {
          "internalType": "address",
          "name": "to",
          "type": "address"
        },
        {
          "internalType": "uint256",
          "name": "amount",
          "type": "uint256"
        }
      ],
      "name": "transfer",
      "outputs": [
        {
          "internalType": "bool",
          "name": "",
          "type": "bool"
        }
      ],
      "stateMutability": "nonpayable",
      "type": "function"
    },
    {
      "inputs": [
        {
          "internalType": "address",
          "name": "from",
          "type": "address"
        },
        {
          "internalType": "address",
          "name": "to",
          "type": "address"
        },
        {
          "internalType": "uint256",
          "name": "amount",
          "type": "uint256"
        }
      ],
      "name": "transferFrom",
      "outputs": [
        {
          "internalType": "bool",
          "name": "",
          "type": "bool"
        }
      ],
      "stateMutability": "nonpayable",
      "type": "function"
    }
  ],
  "bytecode": "0x6101606040523480156200001257600080fd5b506040518060400160405280601681526020017f496e6b76657374476f7665726e616e6365546f6b656e0000000000000000000081525080604051806040016040528060018152602001603160f81b8152506040518060400160405280601681526020017f496e6b76657374476f7665726e616e6365546f6b656e0000000000000000000081525060405180604001604052806003815260200162494e4b60e81b8152508160039081620000c79190620008c2565b506004620000d68282620008c2565b50620000e891508390506005620001ad565b61012052620000f9816006620001ad565b61014052815160208084019190912060e052815190820120610100524660a0526200018760e05161010051604080517f8b73c3c69bb8fe3d512ecc4cf759cc79239f7b179b0ffacaa9a75d522b39400f60208201529081019290925260608201524660808201523060a082015260009060c00160405160208183030381529060405280519060200120905090565b60805250503060c05250620001a73369d3c21bcecceda1000000620001e6565b62000a46565b6000602083511015620001cd57620001c58362000292565b9050620001e0565b81620001da8482620008c2565b5060ff90505b92915050565b620001f28282620002d5565b6001600160e01b0362000206620003a68216565b1115620002735760405162461bcd60e51b815260206004820152603060248201527f4552433230566f7465733a20746f74616c20737570706c79207269736b73206f60448201526f766572666c6f77696e6720766f74657360801b60648201526084015b60405180910390fd5b6200028c600b62000ba5620003ac60201b1783620003c1565b50505050565b600080829050601f81511115620002c0578260405163305a27a960e01b81526004016200026a91906200098e565b8051620002cd82620009df565b179392505050565b6001600160a01b0382166200032d5760405162461bcd60e51b815260206004820152601f60248201527f45524332303a206d696e7420746f20746865207a65726f20616464726573730060448201526064016200026a565b806002600082825462000341919062000a1a565b90915550506001600160a01b038216600081815260208181526040808320805486019055518481527fddf252ad1be2c89b69c2b068fc378daa952ba7f163c4a11628f55a4df523b3ef910160405180910390a3620003a2600083836200054e565b5050565b60025490565b6000620003ba828462000a1a565b9392505050565b82546000908190818115620004105760008781526020902082016000190160408051808201909152905463ffffffff8116825264010000000090046001600160e01b0316602082015262000425565b60408051808201909152600080825260208201525b905080602001516001600160e01b031693506200044384868860201c565b92506000821180156200047057506200045b62000582565b65ffffffffffff16816000015163ffffffff16145b15620004b957620004818362000594565b60008881526020902083016000190180546001600160e01b03929092166401000000000263ffffffff9092169190911790556200053f565b866040518060400160405280620004e7620004d96200058260201b60201c565b65ffffffffffff1662000603565b63ffffffff168152602001620004fd8662000594565b6001600160e01b0390811690915282546001810184556000938452602093849020835194909301519091166401000000000263ffffffff909316929092179101555b5050935093915050565b505050565b6001600160a01b0383811660009081526009602052604080822054858416835291205462000549929182169116836200066a565b60006200058f43620007a5565b905090565b60006001600160e01b03821115620005ff5760405162461bcd60e51b815260206004820152602760248201527f53616665436173743a2076616c756520646f65736e27742066697420696e20326044820152663234206269747360c81b60648201526084016200026a565b5090565b600063ffffffff821115620005ff5760405162461bcd60e51b815260206004820152602660248201527f53616665436173743a2076616c756520646f65736e27742066697420696e203360448201526532206269747360d01b60648201526084016200026a565b816001600160a01b0316836001600160a01b0316141580156200068d5750600081115b1562000549576001600160a01b038316156200071a576001600160a01b0383166000908152600a6020908152604082208291620006d791906200080e901b62000bb11785620003c1565b91509150846001600160a01b03166000805160206200298a83398151915283836040516200070f929190918252602082015260400190565b60405180910390a250505b6001600160a01b0382161562000549576001600160a01b0382166000908152600a60209081526040822082916200075e9190620003ac901b62000ba51785620003c1565b91509150836001600160a01b03166000805160206200298a833981519152838360405162000796929190918252602082015260400190565b60405180910390a25050505050565b600065ffffffffffff821115620005ff5760405162461bcd60e51b815260206004820152602660248201527f53616665436173743a2076616c756520646f65736e27742066697420696e203460448201526538206269747360d01b60648201526084016200026a565b6000620003ba828462000a30565b634e487b7160e01b600052604160045260246000fd5b600181811c908216806200084757607f821691505b6020821081036200086857634e487b7160e01b600052602260045260246000fd5b50919050565b601f82111562000549576000816000526020600020601f850160051c81016020861015620008995750805b601f850160051c820191505b81811015620008ba57828155600101620008a5565b505050505050565b81516001600160401b03811115620008de57620008de6200081c565b620008f681620008ef845462000832565b846200086e565b602080601f8311600181146200092e5760008415620009155750858301515b600019600386901b1c1916600185901b178555620008ba565b600085815260208120601f198616915b828110156200095f578886015182559484019460019091019084016200093e565b50858210156200097e5787850151600019600388901b60f8161c191681555b5050505050600190811b01905550565b60006020808352835180602085015260005b81811015620009be57858101830151858201604001528201620009a0565b506000604082860101526040601f19601f8301168501019250505092915050565b80516020808301519190811015620008685760001960209190910360031b1b16919050565b634e487b7160e01b600052601160045260246000fd5b80820180821115620001e057620001e062000a04565b81810381811115620001e057620001e062000a04565b60805160a05160c05160e051610100516101205161014051611ee962000aa160003960006106820152600061065701526000610fdf01526000610fb701526000610f1201526000610f3c01526000610f660152611ee96000f3fe608060405234801561001057600080fd5b50600436106101635760003560e01c806370a08231116100ce5780639ab24eb0116100875780639ab24eb01461030c578063a457c2d71461031f578063a9059cbb14610332578063c3cda52014610345578063d505accf14610358578063dd62ed3e1461036b578063f1127ed81461037e57600080fd5b806370a082311461027b5780637ecebe00146102a457806384b0196e146102b75780638e539e8c146102d257806391ddadf4146102e557806395d89b411461030457600080fd5b8063395093511161012057806339509351146101e55780633a46b1a8146101f85780634bf5d7e91461020b578063587cde1e146102135780635c19a95c1461023e5780636fcfff451461025357600080fd5b806306fdde0314610168578063095ea7b31461018657806318160ddd146101a957806323b872dd146101bb578063313ce567146101ce5780633644e515146101dd575b600080fd5b6101706103bb565b60405161017d9190611b37565b60405180910390f35b610199610194366004611b66565b61044d565b604051901515815260200161017d565b6002545b60405190815260200161017d565b6101996101c9366004611b90565b610467565b6040516012815260200161017d565b6101ad61048b565b6101996101f3366004611b66565b61049a565b6101ad610206366004611b66565b6104bc565b610170610546565b610226610221366004611bcc565b6105de565b6040516001600160a01b03909116815260200161017d565b61025161024c366004611bcc565b6105fc565b005b610266610261366004611bcc565b610609565b60405163ffffffff909116815260200161017d565b6101ad610289366004611bcc565b6001600160a01b031660009081526020819052604090205490565b6101ad6102b2366004611bcc565b61062b565b6102bf610649565b60405161017d9796959493929190611be7565b6101ad6102e0366004611c80565b6106d2565b6102ed610739565b60405165ffffffffffff909116815260200161017d565b610170610744565b6101ad61031a366004611bcc565b610753565b61019961032d366004611b66565b6107d4565b610199610340366004611b66565b61084f565b610251610353366004611caa565b61085d565b610251610366366004611d02565b610993565b6101ad610379366004611d6c565b610af7565b61039161038c366004611d9f565b610b22565b60408051825163ffffffff1681526020928301516001600160e01b0316928101929092520161017d565b6060600380546103ca90611ddf565b80601f01602080910402602001604051908101604052809291908181526020018280546103f690611ddf565b80156104435780601f1061041857610100808354040283529160200191610443565b820191906000526020600020905b81548152906001019060200180831161042657829003601f168201915b5050505050905090565b60003361045b818585610bbd565b60019150505b92915050565b600033610475858285610ce1565b610480858585610d5b565b506001949350505050565b6000610495610f05565b905090565b60003361045b8185856104ad8383610af7565b6104b79190611e29565b610bbd565b60006104c6610739565b65ffffffffffff16821061051d5760405162461bcd60e51b815260206004820152601960248201527804552433230566f7465733a20667574757265206c6f6f6b757603c1b60448201526064015b60405180910390fd5b6001600160a01b0383166000908152600a6020526040902061053f9083611030565b9392505050565b606043610551610739565b65ffffffffffff16146105a65760405162461bcd60e51b815260206004820152601d60248201527f4552433230566f7465733a2062726f6b656e20636c6f636b206d6f64650000006044820152606401610514565b5060408051808201909152601d81527f6d6f64653d626c6f636b6e756d6265722666726f6d3d64656661756c74000000602082015290565b6001600160a01b039081166000908152600960205260409020541690565b6106063382611118565b50565b6001600160a01b0381166000908152600a6020526040812054610461906111ae565b6001600160a01b038116600090815260076020526040812054610461565b60006060808280808361067d7f00000000000000000000000000000000000000000000000000000000000000006005611217565b6106a87f00000000000000000000000000000000000000000000000000000000000000006006611217565b60408051600080825260208201909252600f60f81b9b939a50919850469750309650945092509050565b60006106dc610739565b65ffffffffffff16821061072e5760405162461bcd60e51b815260206004820152601960248201527804552433230566f7465733a20667574757265206c6f6f6b757603c1b6044820152606401610514565b610461600b83611030565b6000610495436112c2565b6060600480546103ca90611ddf565b6001600160a01b0381166000908152600a602052604081205480156107c1576001600160a01b0383166000908152600a60205260409020805460001983019081106107a0576107a0611e3c565b600091825260209091200154600160201b90046001600160e01b03166107c4565b60005b6001600160e01b03169392505050565b600033816107e28286610af7565b9050838110156108425760405162461bcd60e51b815260206004820152602560248201527f45524332303a2064656372656173656420616c6c6f77616e63652062656c6f77604482015264207a65726f60d81b6064820152608401610514565b6104808286868403610bbd565b60003361045b818585610d5b565b834211156108ad5760405162461bcd60e51b815260206004820152601d60248201527f4552433230566f7465733a207369676e617475726520657870697265640000006044820152606401610514565b604080517fe48329057bfd03d55e49b547132e39cffd9c1820ad7b9d4c5307691425d15adf60208201526001600160a01b0388169181019190915260608101869052608081018590526000906109279061091f9060a00160405160208183030381529060405280519060200120611329565b858585611356565b90506109328161137e565b86146109805760405162461bcd60e51b815260206004820152601960248201527f4552433230566f7465733a20696e76616c6964206e6f6e6365000000000000006044820152606401610514565b61098a8188611118565b50505050505050565b834211156109e35760405162461bcd60e51b815260206004820152601d60248201527f45524332305065726d69743a206578706972656420646561646c696e650000006044820152606401610514565b60007f6e71edae12b1b97f4d1f60370fef10105fa2faae0126114a169c64845d6126c9888888610a128c61137e565b6040805160208101969096526001600160a01b0394851690860152929091166060840152608083015260a082015260c0810186905260e0016040516020818303038152906040528051906020012090506000610a6d82611329565b90506000610a7d82878787611356565b9050896001600160a01b0316816001600160a01b031614610ae05760405162461bcd60e51b815260206004820152601e60248201527f45524332305065726d69743a20696e76616c6964207369676e617475726500006044820152606401610514565b610aeb8a8a8a610bbd565b50505050505050505050565b6001600160a01b03918216600090815260016020908152604080832093909416825291909152205490565b60408051808201909152600080825260208201526001600160a01b0383166000908152600a60205260409020805463ffffffff8416908110610b6657610b66611e3c565b60009182526020918290206040805180820190915291015463ffffffff81168252600160201b90046001600160e01b0316918101919091529392505050565b600061053f8284611e29565b600061053f8284611e52565b6001600160a01b038316610c1f5760405162461bcd60e51b8152602060048201526024808201527f45524332303a20617070726f76652066726f6d20746865207a65726f206164646044820152637265737360e01b6064820152608401610514565b6001600160a01b038216610c805760405162461bcd60e51b815260206004820152602260248201527f45524332303a20617070726f766520746f20746865207a65726f206164647265604482015261737360f01b6064820152608401610514565b6001600160a01b0383811660008181526001602090815260408083209487168084529482529182902085905590518481527f8c5be1e5ebec7d5bd14f71427d1e84f3dd0314c0f7b2291e5b200ac8c7c3b925910160405180910390a3505050565b6000610ced8484610af7565b90506000198114610d555781811015610d485760405162461bcd60e51b815260206004820152601d60248201527f45524332303a20696e73756666696369656e7420616c6c6f77616e63650000006044820152606401610514565b610d558484848403610bbd565b50505050565b6001600160a01b038316610dbf5760405162461bcd60e51b815260206004820152602560248201527f45524332303a207472616e736665722066726f6d20746865207a65726f206164604482015264647265737360d81b6064820152608401610514565b6001600160a01b038216610e215760405162461bcd60e51b815260206004820152602360248201527f45524332303a207472616e7366657220746f20746865207a65726f206164647260448201526265737360e81b6064820152608401610514565b6001600160a01b03831660009081526020819052604090205481811015610e995760405162461bcd60e51b815260206004820152602660248201527f45524332303a207472616e7366657220616d6f756e7420657863656564732062604482015265616c616e636560d01b6064820152608401610514565b6001600160a01b03848116600081815260208181526040808320878703905593871680835291849020805487019055925185815290927fddf252ad1be2c89b69c2b068fc378daa952ba7f163c4a11628f55a4df523b3ef910160405180910390a3610d558484846113ab565b6000306001600160a01b037f000000000000000000000000000000000000000000000000000000000000000016148015610f5e57507f000000000000000000000000000000000000000000000000000000000000000046145b15610f8857507f000000000000000000000000000000000000000000000000000000000000000090565b610495604080517f8b73c3c69bb8fe3d512ecc4cf759cc79239f7b179b0ffacaa9a75d522b39400f60208201527f0000000000000000000000000000000000000000000000000000000000000000918101919091527f000000000000000000000000000000000000000000000000000000000000000060608201524660808201523060a082015260009060c00160405160208183030381529060405280519060200120905090565b81546000908181600581111561108a57600061104b846113c6565b6110559085611e52565b600088815260209020909150869082015463ffffffff16111561107a57809150611088565b611085816001611e29565b92505b505b808210156110d757600061109e83836114ae565b600088815260209020909150869082015463ffffffff1611156110c3578091506110d1565b6110ce816001611e29565b92505b5061108a565b80156111025760008681526020902081016000190154600160201b90046001600160e01b0316611105565b60005b6001600160e01b03169695505050505050565b6000611123836105de565b90506000611146846001600160a01b031660009081526020819052604090205490565b6001600160a01b0385811660008181526009602052604080822080546001600160a01b031916898616908117909155905194955093928616927f3134e8a2e6d97e929a7e54011ea5485d7d196dd5f0ba4d4ef95803e8e3fc257f9190a4610d558284836114c9565b600063ffffffff8211156112135760405162461bcd60e51b815260206004820152602660248201527f53616665436173743a2076616c756520646f65736e27742066697420696e203360448201526532206269747360d01b6064820152608401610514565b5090565b606060ff83146112315761122a83611606565b9050610461565b81805461123d90611ddf565b80601f016020809104026020016040519081016040528092919081815260200182805461126990611ddf565b80156112b65780601f1061128b576101008083540402835291602001916112b6565b820191906000526020600020905b81548152906001019060200180831161129957829003601f168201915b50505050509050610461565b600065ffffffffffff8211156112135760405162461bcd60e51b815260206004820152602660248201527f53616665436173743a2076616c756520646f65736e27742066697420696e203460448201526538206269747360d01b6064820152608401610514565b6000610461611336610f05565b8360405161190160f01b8152600281019290925260228201526042902090565b600080600061136787878787611645565b91509150611374816116ff565b5095945050505050565b6001600160a01b03811660009081526007602052604090208054600181018255905b50919050565b505050565b6113a66113b7846105de565b6113c0846105de565b836114c9565b6000816000036113d857506000919050565b600060016113e584611844565b901c6001901b905060018184816113fe576113fe611e65565b048201901c9050600181848161141657611416611e65565b048201901c9050600181848161142e5761142e611e65565b048201901c9050600181848161144657611446611e65565b048201901c9050600181848161145e5761145e611e65565b048201901c9050600181848161147657611476611e65565b048201901c9050600181848161148e5761148e611e65565b048201901c905061053f818285816114a8576114a8611e65565b046118d8565b60006114bd6002848418611e7b565b61053f90848416611e29565b816001600160a01b0316836001600160a01b0316141580156114eb5750600081115b156113a6576001600160a01b03831615611579576001600160a01b0383166000908152600a60205260408120819061152690610bb1856118ee565b91509150846001600160a01b03167fdec2bacdd2f05b59de34da9b523dff8be42e5e38e818c82fdb0bae774387a724838360405161156e929190918252602082015260400190565b60405180910390a250505b6001600160a01b038216156113a6576001600160a01b0382166000908152600a6020526040812081906115af90610ba5856118ee565b91509150836001600160a01b03167fdec2bacdd2f05b59de34da9b523dff8be42e5e38e818c82fdb0bae774387a72483836040516115f7929190918252602082015260400190565b60405180910390a25050505050565b6060600061161383611a60565b604080516020808252818301909252919250600091906020820181803683375050509182525060208101929092525090565b6000806fa2a8918ca85bafe22016d0b997e4df60600160ff1b0383111561167257506000905060036116f6565b6040805160008082526020820180845289905260ff881692820192909252606081018690526080810185905260019060a0016020604051602081039080840390855afa1580156116c6573d6000803e3d6000fd5b5050604051601f1901519150506001600160a01b0381166116ef576000600192509250506116f6565b9150600090505b94509492505050565b600081600481111561171357611713611e9d565b0361171b5750565b600181600481111561172f5761172f611e9d565b036117775760405162461bcd60e51b815260206004820152601860248201527745434453413a20696e76616c6964207369676e617475726560401b6044820152606401610514565b600281600481111561178b5761178b611e9d565b036117d85760405162461bcd60e51b815260206004820152601f60248201527f45434453413a20696e76616c6964207369676e6174757265206c656e677468006044820152606401610514565b60038160048111156117ec576117ec611e9d565b036106065760405162461bcd60e51b815260206004820152602260248201527f45434453413a20696e76616c6964207369676e6174757265202773272076616c604482015261756560f01b6064820152608401610514565b600080608083901c1561185957608092831c92015b604083901c1561186b57604092831c92015b602083901c1561187d57602092831c92015b601083901c1561188f57601092831c92015b600883901c156118a157600892831c92015b600483901c156118b357600492831c92015b600283901c156118c557600292831c92015b600183901c156104615760010192915050565b60008183106118e7578161053f565b5090919050565b8254600090819081811561193a5760008781526020902082016000190160408051808201909152905463ffffffff81168252600160201b90046001600160e01b0316602082015261194f565b60408051808201909152600080825260208201525b905080602001516001600160e01b0316935061196f84868863ffffffff16565b92506000821180156119995750611984610739565b65ffffffffffff16816000015163ffffffff16145b156119dd576119a783611a88565b60008881526020902083016000190180546001600160e01b0392909216600160201b0263ffffffff909216919091179055611a56565b866040518060400160405280611a016119f4610739565b65ffffffffffff166111ae565b63ffffffff168152602001611a1586611a88565b6001600160e01b039081169091528254600181018455600093845260209384902083519490930151909116600160201b0263ffffffff909316929092179101555b5050935093915050565b600060ff8216601f81111561046157604051632cd44ac360e21b815260040160405180910390fd5b60006001600160e01b038211156112135760405162461bcd60e51b815260206004820152602760248201527f53616665436173743a2076616c756520646f65736e27742066697420696e20326044820152663234206269747360c81b6064820152608401610514565b6000815180845260005b81811015611b1757602081850181015186830182015201611afb565b506000602082860101526020601f19601f83011685010191505092915050565b60208152600061053f6020830184611af1565b80356001600160a01b0381168114611b6157600080fd5b919050565b60008060408385031215611b7957600080fd5b611b8283611b4a565b946020939093013593505050565b600080600060608486031215611ba557600080fd5b611bae84611b4a565b9250611bbc60208501611b4a565b9150604084013590509250925092565b600060208284031215611bde57600080fd5b61053f82611b4a565b60ff60f81b881681526000602060e06020840152611c0860e084018a611af1565b8381036040850152611c1a818a611af1565b606085018990526001600160a01b038816608086015260a0850187905284810360c08601528551808252602080880193509091019060005b81811015611c6e57835183529284019291840191600101611c52565b50909c9b505050505050505050505050565b600060208284031215611c9257600080fd5b5035919050565b803560ff81168114611b6157600080fd5b60008060008060008060c08789031215611cc357600080fd5b611ccc87611b4a565b95506020870135945060408701359350611ce860608801611c99565b92506080870135915060a087013590509295509295509295565b600080600080600080600060e0888a031215611d1d57600080fd5b611d2688611b4a565b9650611d3460208901611b4a565b95506040880135945060608801359350611d5060808901611c99565b925060a0880135915060c0880135905092959891949750929550565b60008060408385031215611d7f57600080fd5b611d8883611b4a565b9150611d9660208401611b4a565b90509250929050565b60008060408385031215611db257600080fd5b611dbb83611b4a565b9150602083013563ffffffff81168114611dd457600080fd5b809150509250929050565b600181811c90821680611df357607f821691505b6020821081036113a057634e487b7160e01b600052602260045260246000fd5b634e487b7160e01b600052601160045260246000fd5b8082018082111561046157610461611e13565b634e487b7160e01b600052603260045260246000fd5b8181038181111561046157610461611e13565b634e487b7160e01b600052601260045260246000fd5b600082611e9857634e487b7160e01b600052601260045260246000fd5b500490565b634e487b7160e01b600052602160045260246000fdfea26469706673582212202833d96c0cd55f36377c412013289a0ac317375f34904386f5b6a4d6206cafdc64736f6c63430008180033dec2bacdd2f05b59de34da9b523dff8be42e5e38e818c82fdb0bae774387a724",
  "linkReferences": {},
  "deployedLinkReferences": {}
}