{
  "_format": "hh-sol-artifact-1",
  "contractName": "ImageNFT",
  "sourceName": "contracts/ImageNFT.sol",
  "abi": [
    {
      "inputs": [],
      "stateMutability": "nonpayable",
      "type": "constructor"
    },
    {
      "anonymous": false,
      "inputs": [
        {
          "indexed": true,
          "internalType": "address",
          "name": "owner",
          "type": "address"
        },
        {
          "indexed": true,
          "internalType": "address",
          "name": "approved",
          "type": "address"
        },
        {
          "indexed": true,
          "internalType": "uint256",
          "name": "tokenId",
          "type": "uint256"
        }
      ],
      "name": "Approval",
      "type": "event"
    },
    {
      "anonymous": false,
      "inputs": [
        {
          "indexed": true,
          "internalType": "address",
          "name": "owner",
          "type": "address"
        },
        {
          "indexed": true,
          "internalType": "address",
          "name": "operator",
          "type": "address"
        },
        {
          "indexed": false,
          "internalType": "bool",
          "name": "approved",
          "type": "bool"
        }
      ],
      "name": "ApprovalForAll",
      "type": "event"
    },
    {
      "anonymous": false,
      "inputs": [
        {
          "indexed": false,
          "internalType": "uint256",
          "name": "_fromTokenId",
          "type": "uint256"
        },
        {
          "indexed": false,
          "internalType": "uint256",
          "name": "_toTokenId",
          "type": "uint256"
        }
      ],
      "name": "BatchMetadataUpdate",
      "type": "event"
    },
    {
      "anonymous": false,
      "inputs": [
        {
          "indexed": false,
          "internalType": "uint256",
          "name": "_tokenId",
          "type": "uint256"
        }
      ],
      "name": "MetadataUpdate",
      "type": "event"
    },
    {
      "anonymous": false,
      "inputs": [
        {
          "indexed": true,
          "internalType": "address",
          "name": "previousOwner",
          "type": "address"
        },
        {
          "indexed": true,
          "internalType": "address",
          "name": "newOwner",
          "type": "address"
        }
      ],
      "name": "OwnershipTransferred",
      "type": "event"
    },
    {
      "anonymous": false,
      "inputs": [
        {
          "indexed": true,
          "internalType": "address",
          "name": "from",
          "type": "address"
        },
        {
          "indexed": true,
          "internalType": "address",
          "name": "to",
          "type": "address"
        },
        {
          "indexed": true,
          "internalType": "uint256",
          "name": "tokenId",
          "type": "uint256"
        }
      ],
      "name": "Transfer",
      "type": "event"
    },
    {
      "inputs": [
        {
          "internalType": "address",
          "name": "to",
          "type": "address"
        },
        {
          "internalType": "uint256",
          "name": "tokenId",
          "type": "uint256"
        }
      ],
      "name": "approve",
      "outputs": [],
      "stateMutability": "nonpayable",
      "type": "function"
    },
    {
      "inputs": [
        {
          "internalType": "address",
          "name": "owner",
          "type": "address"
        }
      ],
      "name": "balanceOf",
      "outputs": [
        {
          "internalType": "uint256",
          "name": "",
          "type": "uint256"
        }
      ],
      "stateMutability": "view",
      "type": "function"
    },
    {
      "inputs": [
        {
          "internalType": "uint256",
          "name": "tokenId",
          "type": "uint256"
        }
      ],
      "name": "getApproved",
      "outputs": [
        {
          "internalType": "address",
          "name": "",
          "type": "address"
        }
      ],
      "stateMutability": "view",
      "type": "function"
    },
    {
      "inputs": [
        {
          "internalType": "address",
          "name": "owner",
          "type": "address"
        },
        {
          "internalType": "address",
          "name": "operator",
          "type": "address"
        }
      ],
      "name": "isApprovedForAll",
      "outputs": [
        {
          "internalType": "bool",
          "name": "",
          "type": "bool"
        }
      ],
      "stateMutability": "view",
      "type": "function"
    },
    {
      "inputs": [
        {
          "internalType": "address",
          "name": "to",
          "type": "address"
        },
        {
          "internalType": "string",
          "name": "uri",
          "type": "string"
        }
      ],
      "name": "mint",
      "outputs": [
        {
          "internalType": "uint256",
          "name": "",
          "type": "uint256"
        }
      ],
      "stateMutability": "nonpayable",
      "type": "function"
    },
    {
      "inputs": [],
      "name": "name",
      "outputs": [
        {
          "internalType": "string",
          "name": "",
          "type": "string"
        }
      ],
      "stateMutability": "view",
      "type": "function"
    },
    {
      "inputs": [],
      "name": "nextTokenId",
      "outputs": [
        {
          "internalType": "uint256",
          "name": "",
          "type": "uint256"
        }
      ],
      "stateMutability": "view",
      "type": "function"
    },
    {
      "inputs": [],
      "name": "owner",
      "outputs": [
        {
          "internalType": "address",
          "name": "",
          "type": "address"
        }
      ],
      "stateMutability": "view",
      "type": "function"
    },
    {
      "inputs": [
        {
          "internalType": "uint256",
          "name": "tokenId",
          "type": "uint256"
        }
      ],
      "name": "ownerOf",
      "outputs": [
        {
          "internalType": "address",
          "name": "",
          "type": "address"
        }
      ],
      "stateMutability": "view",
      "type": "function"
    },
    {
      "inputs": [],
      "name": "renounceOwnership",
      "outputs": [],
      "stateMutability": "nonpayable",
      "type": "function"
    },
    {
      "inputs": [
        {
          "internalType": "address",
          "name": "from",
          "type": "address"
        },
        {
          "internalType": "address",
          "name": "to",
          "type": "address"
        },
        {
          "internalType": "uint256",
          "name": "tokenId",
          "type": "uint256"
        }
      ],
      "name": "safeTransferFrom",
      "outputs": [],
      "stateMutability": "nonpayable",
      "type": "function"
    },
    {
      "inputs": [
        {
          "internalType": "address",
          "name": "from",
          "type": "address"
        },
        {
          "internalType": "address",
          "name": "to",
          "type": "address"
        },
        {
          "internalType": "uint256",
          "name": "tokenId",
          "type": "uint256"
        },
        {
          "internalType": "bytes",
          "name": "data",
          "type": "bytes"
        }
      ],
      "name": "safeTransferFrom",
      "outputs": [],
      "stateMutability": "nonpayable",
      "type": "function"
    },
    {
      "inputs": [
        {
          "internalType": "address",
          "name": "operator",
          "type": "address"
        },
        {
          "internalType": "bool",
          "name": "approved",
          "type": "bool"
        }
      ],
      "name": "setApprovalForAll",
      "outputs": [],
      "stateMutability": "nonpayable",
      "type": "function"
    },
    {
      "inputs": [
        {
          "internalType": "bytes4",
          "name": "interfaceId",
          "type": "bytes4"
        }
      ],
      "name": "supportsInterface",
      "outputs": [
        {
          "internalType": "bool",
          "name": "",
          "type": "bool"
        }
      ],
      "stateMutability": "view",
      "type": "function"
    },
    {
      "inputs": [],
      "name": "symbol",
      "outputs": [
        {
          "internalType": "string",
          "name": "",
          "type": "string"
        }
      ],
      "stateMutability": "view",
      "type": "function"
    },
    {
      "inputs": [
        {
          "internalType": "uint256",
          "name": "tokenId",
          "type": "uint256"
        }
      ],
      "name": "tokenURI",
      "outputs": [
        {
          "internalType": "string",
          "name": "",
          "type": "string"
        }
      ],
      "stateMutability": "view",
      "type": "function"
    },
    {
      "inputs": [
        {
          "internalType": "address",
          "name": "from",
          "type": "address"
        },
        {
          "internalType": "address",
          "name": "to",
          "type": "address"
        },
        {
          "internalType": "uint256",
          "name": "tokenId",
          "type": "uint256"
        }
      ],
      "name": "transferFrom",
      "outputs": [],
      "stateMutability": "nonpayable",
      "type": "function"
    },
    {
      "inputs": [
        {
          "internalType": "address",
          "name": "newOwner",
          "type": "address"
        }
      ],
      "name": "transferOwnership",
      "outputs": [],
      "stateMutability": "nonpayable",
      "type": "function"
    }
  ],
  "bytecode": "0x60806040523480156200001157600080fd5b506040518060400160405280601381526020017f496e6b7665737420417274776f726b204e4654000000000000000000000000008152506040518060400160405280600381526020016210549560ea1b8152508160009081620000759190620001a4565b506001620000848282620001a4565b505050620000a16200009b620000a760201b60201c565b620000ab565b62000270565b3390565b600780546001600160a01b038381166001600160a01b0319831681179093556040519116919082907f8be0079c531659141344cd1fd0a4f28419497f9722a3daafe3b4186f6b6457e090600090a35050565b634e487b7160e01b600052604160045260246000fd5b600181811c908216806200012857607f821691505b6020821081036200014957634e487b7160e01b600052602260045260246000fd5b50919050565b601f8211156200019f576000816000526020600020601f850160051c810160208610156200017a5750805b601f850160051c820191505b818110156200019b5782815560010162000186565b5050505b505050565b81516001600160401b03811115620001c057620001c0620000fd565b620001d881620001d1845462000113565b846200014f565b602080601f831160018114620002105760008415620001f75750858301515b600019600386901b1c1916600185901b1785556200019b565b600085815260208120601f198616915b82811015620002415788860151825594840194600190910190840162000220565b5085821015620002605787850151600019600388901b60f8161c191681555b5050505050600190811b01905550565b61184480620002806000396000f3fe608060405234801561001057600080fd5b50600436106101165760003560e01c806375794a3c116100a2578063b88d4fde11610071578063b88d4fde1461022f578063c87b56dd14610242578063d0def52114610255578063e985e9c514610268578063f2fde38b1461027b57600080fd5b806375794a3c146101fa5780638da5cb5b1461020357806395d89b4114610214578063a22cb4651461021c57600080fd5b806323b872dd116100e957806323b872dd1461019857806342842e0e146101ab5780636352211e146101be57806370a08231146101d1578063715018a6146101f257600080fd5b806301ffc9a71461011b57806306fdde0314610143578063081812fc14610158578063095ea7b314610183575b600080fd5b61012e610129366004611221565b61028e565b60405190151581526020015b60405180910390f35b61014b6102b9565b60405161013a919061128e565b61016b6101663660046112a1565b61034b565b6040516001600160a01b03909116815260200161013a565b6101966101913660046112d6565b610372565b005b6101966101a6366004611300565b61048c565b6101966101b9366004611300565b6104bd565b61016b6101cc3660046112a1565b6104d8565b6101e46101df36600461133c565b610538565b60405190815260200161013a565b6101966105be565b6101e460085481565b6007546001600160a01b031661016b565b61014b6105d2565b61019661022a366004611357565b6105e1565b61019661023d36600461141f565b6105f0565b61014b6102503660046112a1565b610628565b6101e461026336600461149b565b610738565b61012e6102763660046114fd565b610775565b61019661028936600461133c565b6107a3565b60006001600160e01b03198216632483248360e11b14806102b357506102b38261081c565b92915050565b6060600080546102c890611530565b80601f01602080910402602001604051908101604052809291908181526020018280546102f490611530565b80156103415780601f1061031657610100808354040283529160200191610341565b820191906000526020600020905b81548152906001019060200180831161032457829003601f168201915b5050505050905090565b60006103568261086c565b506000908152600460205260409020546001600160a01b031690565b600061037d826104d8565b9050806001600160a01b0316836001600160a01b0316036103ef5760405162461bcd60e51b815260206004820152602160248201527f4552433732313a20617070726f76616c20746f2063757272656e74206f776e656044820152603960f91b60648201526084015b60405180910390fd5b336001600160a01b038216148061040b575061040b8133610775565b61047d5760405162461bcd60e51b815260206004820152603d60248201527f4552433732313a20617070726f76652063616c6c6572206973206e6f7420746f60448201527f6b656e206f776e6572206f7220617070726f76656420666f7220616c6c00000060648201526084016103e6565b61048783836108bc565b505050565b610496338261092a565b6104b25760405162461bcd60e51b81526004016103e69061156a565b610487838383610988565b610487838383604051806020016040528060008152506105f0565b6000818152600260205260408120546001600160a01b0316806102b35760405162461bcd60e51b8152602060048201526018602482015277115490cdcc8c4e881a5b9d985b1a59081d1bdad95b88125160421b60448201526064016103e6565b60006001600160a01b0382166105a25760405162461bcd60e51b815260206004820152602960248201527f4552433732313a2061646472657373207a65726f206973206e6f7420612076616044820152683634b21037bbb732b960b91b60648201526084016103e6565b506001600160a01b031660009081526003602052604090205490565b6105c6610aec565b6105d06000610b46565b565b6060600180546102c890611530565b6105ec338383610b98565b5050565b6105fa338361092a565b6106165760405162461bcd60e51b81526004016103e69061156a565b61062284848484610c66565b50505050565b60606106338261086c565b6000828152600660205260408120805461064c90611530565b80601f016020809104026020016040519081016040528092919081815260200182805461067890611530565b80156106c55780601f1061069a576101008083540402835291602001916106c5565b820191906000526020600020905b8154815290600101906020018083116106a857829003601f168201915b5050505050905060006106e360408051602081019091526000815290565b905080516000036106f5575092915050565b81511561072757808260405160200161070f9291906115b7565b60405160208183030381529060405292505050919050565b61073084610c99565b949350505050565b6000610742610aec565b6000600860008154610753906115e6565b918290555090506107648482610d0c565b61076e8184610d26565b9392505050565b6001600160a01b03918216600090815260056020908152604080832093909416825291909152205460ff1690565b6107ab610aec565b6001600160a01b0381166108105760405162461bcd60e51b815260206004820152602660248201527f4f776e61626c653a206e6577206f776e657220697320746865207a65726f206160448201526564647265737360d01b60648201526084016103e6565b61081981610b46565b50565b60006001600160e01b031982166380ac58cd60e01b148061084d57506001600160e01b03198216635b5e139f60e01b145b806102b357506301ffc9a760e01b6001600160e01b03198316146102b3565b61087581610de2565b6108195760405162461bcd60e51b8152602060048201526018602482015277115490cdcc8c4e881a5b9d985b1a59081d1bdad95b88125160421b60448201526064016103e6565b600081815260046020526040902080546001600160a01b0319166001600160a01b03841690811790915581906108f1826104d8565b6001600160a01b03167f8c5be1e5ebec7d5bd14f71427d1e84f3dd0314c0f7b2291e5b200ac8c7c3b92560405160405180910390a45050565b600080610936836104d8565b9050806001600160a01b0316846001600160a01b0316148061095d575061095d8185610775565b806107305750836001600160a01b03166109768461034b565b6001600160a01b031614949350505050565b826001600160a01b031661099b826104d8565b6001600160a01b0316146109c15760405162461bcd60e51b81526004016103e69061160d565b6001600160a01b038216610a235760405162461bcd60e51b8152602060048201526024808201527f4552433732313a207472616e7366657220746f20746865207a65726f206164646044820152637265737360e01b60648201526084016103e6565b826001600160a01b0316610a36826104d8565b6001600160a01b031614610a5c5760405162461bcd60e51b81526004016103e69061160d565b600081815260046020908152604080832080546001600160a01b03199081169091556001600160a01b0387811680865260038552838620805460001901905590871680865283862080546001019055868652600290945282852080549092168417909155905184937fddf252ad1be2c89b69c2b068fc378daa952ba7f163c4a11628f55a4df523b3ef91a4505050565b6007546001600160a01b031633146105d05760405162461bcd60e51b815260206004820181905260248201527f4f776e61626c653a2063616c6c6572206973206e6f7420746865206f776e657260448201526064016103e6565b600780546001600160a01b038381166001600160a01b0319831681179093556040519116919082907f8be0079c531659141344cd1fd0a4f28419497f9722a3daafe3b4186f6b6457e090600090a35050565b816001600160a01b0316836001600160a01b031603610bf95760405162461bcd60e51b815260206004820152601960248201527f4552433732313a20617070726f766520746f2063616c6c65720000000000000060448201526064016103e6565b6001600160a01b03838116600081815260056020908152604080832094871680845294825291829020805460ff191686151590811790915591519182527f17307eab39ab6107e8899845ad3d59bd9653f200f220920489ca2b5937696c31910160405180910390a3505050565b610c71848484610988565b610c7d84848484610dff565b6106225760405162461bcd60e51b81526004016103e690611652565b6060610ca48261086c565b6000610cbb60408051602081019091526000815290565b90506000815111610cdb576040518060200160405280600081525061076e565b80610ce584610f00565b604051602001610cf69291906115b7565b6040516020818303038152906040529392505050565b6105ec828260405180602001604052806000815250610f93565b610d2f82610de2565b610d925760405162461bcd60e51b815260206004820152602e60248201527f45524337323155524953746f726167653a2055524920736574206f66206e6f6e60448201526d32bc34b9ba32b73a103a37b5b2b760911b60648201526084016103e6565b6000828152600660205260409020610daa82826116f4565b506040518281527ff8e1a15aba9398e019f0b49df1a4fde98ee17ae345cb5f6b5e2c27f5033e8ce79060200160405180910390a15050565b6000908152600260205260409020546001600160a01b0316151590565b60006001600160a01b0384163b15610ef557604051630a85bd0160e11b81526001600160a01b0385169063150b7a0290610e439033908990889088906004016117b4565b6020604051808303816000875af1925050508015610e7e575060408051601f3d908101601f19168201909252610e7b918101906117f1565b60015b610edb573d808015610eac576040519150601f19603f3d011682016040523d82523d6000602084013e610eb1565b606091505b508051600003610ed35760405162461bcd60e51b81526004016103e690611652565b805181602001fd5b6001600160e01b031916630a85bd0160e11b149050610730565b506001949350505050565b60606000610f0d83610fc6565b600101905060008167ffffffffffffffff811115610f2d57610f2d611393565b6040519080825280601f01601f191660200182016040528015610f57576020820181803683370190505b5090508181016020015b600019016f181899199a1a9b1b9c1cb0b131b232b360811b600a86061a8153600a8504945084610f6157509392505050565b610f9d838361109e565b610faa6000848484610dff565b6104875760405162461bcd60e51b81526004016103e690611652565b60008072184f03e93ff9f4daa797ed6e38ed64bf6a1f0160401b83106110055772184f03e93ff9f4daa797ed6e38ed64bf6a1f0160401b830492506040015b6d04ee2d6d415b85acef81000000008310611031576d04ee2d6d415b85acef8100000000830492506020015b662386f26fc10000831061104f57662386f26fc10000830492506010015b6305f5e1008310611067576305f5e100830492506008015b612710831061107b57612710830492506004015b6064831061108d576064830492506002015b600a83106102b35760010192915050565b6001600160a01b0382166110f45760405162461bcd60e51b815260206004820181905260248201527f4552433732313a206d696e7420746f20746865207a65726f206164647265737360448201526064016103e6565b6110fd81610de2565b1561114a5760405162461bcd60e51b815260206004820152601c60248201527f4552433732313a20746f6b656e20616c7265616479206d696e7465640000000060448201526064016103e6565b61115381610de2565b156111a05760405162461bcd60e51b815260206004820152601c60248201527f4552433732313a20746f6b656e20616c7265616479206d696e7465640000000060448201526064016103e6565b6001600160a01b038216600081815260036020908152604080832080546001019055848352600290915280822080546001600160a01b0319168417905551839291907fddf252ad1be2c89b69c2b068fc378daa952ba7f163c4a11628f55a4df523b3ef908290a45050565b6001600160e01b03198116811461081957600080fd5b60006020828403121561123357600080fd5b813561076e8161120b565b60005b83811015611259578181015183820152602001611241565b50506000910152565b6000815180845261127a81602086016020860161123e565b601f01601f19169290920160200192915050565b60208152600061076e6020830184611262565b6000602082840312156112b357600080fd5b5035919050565b80356001600160a01b03811681146112d157600080fd5b919050565b600080604083850312156112e957600080fd5b6112f2836112ba565b946020939093013593505050565b60008060006060848603121561131557600080fd5b61131e846112ba565b925061132c602085016112ba565b9150604084013590509250925092565b60006020828403121561134e57600080fd5b61076e826112ba565b6000806040838503121561136a57600080fd5b611373836112ba565b91506020830135801515811461138857600080fd5b809150509250929050565b634e487b7160e01b600052604160045260246000fd5b600067ffffffffffffffff808411156113c4576113c4611393565b604051601f8501601f19908116603f011681019082821181831017156113ec576113ec611393565b8160405280935085815286868601111561140557600080fd5b858560208301376000602087830101525050509392505050565b6000806000806080858703121561143557600080fd5b61143e856112ba565b935061144c602086016112ba565b925060408501359150606085013567ffffffffffffffff81111561146f57600080fd5b8501601f8101871361148057600080fd5b61148f878235602084016113a9565b91505092959194509250565b600080604083850312156114ae57600080fd5b6114b7836112ba565b9150602083013567ffffffffffffffff8111156114d357600080fd5b8301601f810185136114e457600080fd5b6114f3858235602084016113a9565b9150509250929050565b6000806040838503121561151057600080fd5b611519836112ba565b9150611527602084016112ba565b90509250929050565b600181811c9082168061154457607f821691505b60208210810361156457634e487b7160e01b600052602260045260246000fd5b50919050565b6020808252602d908201527f4552433732313a2063616c6c6572206973206e6f7420746f6b656e206f776e6560408201526c1c881bdc88185c1c1c9bdd9959609a1b606082015260800190565b600083516115c981846020880161123e565b8351908301906115dd81836020880161123e565b01949350505050565b60006001820161160657634e487b7160e01b600052601160045260246000fd5b5060010190565b60208082526025908201527f4552433732313a207472616e736665722066726f6d20696e636f72726563742060408201526437bbb732b960d91b606082015260800190565b60208082526032908201527f4552433732313a207472616e7366657220746f206e6f6e20455243373231526560408201527131b2b4bb32b91034b6b83632b6b2b73a32b960711b606082015260800190565b601f821115610487576000816000526020600020601f850160051c810160208610156116cd5750805b601f850160051c820191505b818110156116ec578281556001016116d9565b505050505050565b815167ffffffffffffffff81111561170e5761170e611393565b6117228161171c8454611530565b846116a4565b602080601f831160018114611757576000841561173f5750858301515b600019600386901b1c1916600185901b1785556116ec565b600085815260208120601f198616915b8281101561178657888601518255948401946001909101908401611767565b50858210156117a45787850151600019600388901b60f8161c191681555b5050505050600190811b01905550565b6001600160a01b03858116825284166020820152604081018390526080606082018190526000906117e790830184611262565b9695505050505050565b60006020828403121561180357600080fd5b815161076e8161120b56fea2646970667358221220c74d069a321f8c6e02bde0511133d12e7c2ab8013afc31f10bfb2bdde12fe97364736f6c63430008180033",
  "linkReferences": {},
  "deployedLinkReferences": {}
}