{
  "_format": "hh-sol-artifact-1",
  "contractName": "FundGovernor",
  "sourceName": "contracts/FundGovernor.sol",
  "abi": [
    {
      "inputs": [
        {
          "internalType": "contract IVotes",
          "name": "_token",
          "type": "address"
        },
        {
          "internalType": "contract TimelockController",
          "name": "_timelock",
          "type": "address"
        }
      ],
      "stateMutability": "nonpayable",
      "type": "constructor"
    },
    {
      "inputs": [],
      "name": "Empty",
      "type": "error"
    },
    {
      "inputs": [],
      "name": "InvalidShortString",
      "type": "error"
    },
    {
      "inputs": [
        {
          "internalType": "string",
          "name": "str",
          "type": "string"
        }
      ],
      "name": "StringTooLong",
      "type": "error"
    },
    {
      "anonymous": false,
      "inputs": [],
      "name": "EIP712DomainChanged",
      "type": "event"
    },
    {
      "anonymous": false,
      "inputs": [
        {
          "indexed": false,
          "internalType": "uint256",
          "name": "proposalId",
          "type": "uint256"
        }
      ],
      "name": "ProposalCanceled",
      "type": "event"
    },
    {
      "anonymous": false,
      "inputs": [
        {
          "indexed": false,
          "internalType": "uint256",
          "name": "proposalId",
          "type": "uint256"
        },
        {
          "indexed": false,
          "internalType": "address",
          "name": "proposer",
          "type": "address"
        },
        {
          "indexed": false,
          "internalType": "address[]",
          "name": "targets",
          "type": "address[]"
        },
        {
          "indexed": false,
          "internalType": "uint256[]",
          "name": "values",
          "type": "uint256[]"
        },
        {
          "indexed": false,
          "internalType": "string[]",
          "name": "signatures",
          "type": "string[]"
        },
        {
          "indexed": false,
          "internalType": "bytes[]",
          "name": "calldatas",
          "type": "bytes[]"
        },
        {
          "indexed": false,
          "internalType": "uint256",
          "name": "voteStart",
          "type": "uint256"
        },
        {
          "indexed": false,
          "internalType": "uint256",
          "name": "voteEnd",
          "type": "uint256"
        },
        {
          "indexed": false,
          "internalType": "string",
          "name": "description",
          "type": "string"
        }
      ],
      "name": "ProposalCreated",
      "type": "event"
    },
    {
      "anonymous": false,
      "inputs": [
        {
          "indexed": false,
          "internalType": "uint256",
          "name": "proposalId",
          "type": "uint256"
        }
      ],
      "name": "ProposalExecuted",
      "type": "event"
    },
    {
      "anonymous": false,
      "inputs": [
        {
          "indexed": false,
          "internalType": "uint256",
          "name": "proposalId",
          "type": "uint256"
        },
        {
          "indexed": false,
          "internalType": "uint256",
          "name": "eta",
          "type": "uint256"
        }
      ],
      "name": "ProposalQueued",
      "type": "event"
    },
    {
      "anonymous": false,
      "inputs": [
        {
          "indexed": false,
          "internalType": "uint256",
          "name": "oldProposalThreshold",
          "type": "uint256"
        },
        {
          "indexed": false,
          "internalType": "uint256",
          "name": "newProposalThreshold",
          "type": "uint256"
        }
      ],
      "name": "ProposalThresholdSet",
      "type": "event"
    },
    {
      "anonymous": false,
      "inputs": [
        {
          "indexed": false,
          "internalType": "uint256",
          "name": "oldQuorumNumerator",
          "type": "uint256"
        },
        {
          "indexed": false,
          "internalType": "uint256",
          "name": "newQuorumNumerator",
          "type": "uint256"
        }
      ],
      "name": "QuorumNumeratorUpdated",
      "type": "event"
    },
    {
      "anonymous": false,
      "inputs": [
        {
          "indexed": false,
          "internalType": "address",
          "name": "oldTimelock",
          "type": "address"
        },
        {
          "indexed": false,
          "internalType": "address",
          "name": "newTimelock",
          "type": "address"
        }
      ],
      "name": "TimelockChange",
      "type": "event"
    },
    {
      "anonymous": false,
      "inputs": [
        {
          "indexed": true,
          "internalType": "address",
          "name": "voter",
          "type": "address"
        },
        {
          "indexed": false,
          "internalType": "uint256",
          "name": "proposalId",
          "type": "uint256"
        },
        {
          "indexed": false,
          "internalType": "uint8",
          "name": "support",
          "type": "uint8"
        },
        {
          "indexed": false,
          "internalType": "uint256",
          "name": "weight",
          "type": "uint256"
        },
        {
          "indexed": false,
          "internalType": "string",
          "name": "reason",
          "type": "string"
        }
      ],
      "name": "VoteCast",
      "type": "event"
    },
    {
      "anonymous": false,
      "inputs": [
        {
          "indexed": true,
          "internalType": "address",
          "name": "voter",
          "type": "address"
        },
        {
          "indexed": false,
          "internalType": "uint256",
          "name": "proposalId",
          "type": "uint256"
        },
        {
          "indexed": false,
          "internalType": "uint8",
          "name": "support",
          "type": "uint8"
        },
        {
          "indexed": false,
          "internalType": "uint256",
          "name": "weight",
          "type": "uint256"
        },
        {
          "indexed": false,
          "internalType": "string",
          "name": "reason",
          "type": "string"
        },
        {
          "indexed": false,
          "internalType": "bytes",
          "name": "params",
          "type": "bytes"
        }
      ],
      "name": "VoteCastWithParams",
      "type": "event"
    },
    {
      "anonymous": false,
      "inputs": [
        {
          "indexed": false,
          "internalType": "uint256",
          "name": "oldVotingDelay",
          "type": "uint256"
        },
        {
          "indexed": false,
          "internalType": "uint256",
          "name": "newVotingDelay",
          "type": "uint256"
        }
      ],
      "name": "VotingDelaySet",
      "type": "event"
    },
    {
      "anonymous": false,
      "inputs": [
        {
          "indexed": false,
          "internalType": "uint256",
          "name": "oldVotingPeriod",
          "type": "uint256"
        },
        {
          "indexed": false,
          "internalType": "uint256",
          "name": "newVotingPeriod",
          "type": "uint256"
        }
      ],
      "name": "VotingPeriodSet",
      "type": "event"
    },
    {
      "inputs": [],
      "name": "BALLOT_TYPEHASH",
      "outputs": [
        {
          "internalType": "bytes32",
          "name": "",
          "type": "bytes32"
        }
      ],
      "stateMutability": "view",
      "type": "function"
    },
    {
      "inputs": [],
      "name": "CLOCK_MODE",
      "outputs": [
        {
          "internalType": "string",
          "name": "",
          "type": "string"
        }
      ],
      "stateMutability": "view",
      "type": "function"
    },
    {
      "inputs": [],
      "name": "COUNTING_MODE",
      "outputs": [
        {
          "internalType": "string",
          "name": "",
          "type": "string"
        }
      ],
      "stateMutability": "pure",
      "type": "function"
    },
    {
      "inputs": [],
      "name": "EXTENDED_BALLOT_TYPEHASH",
      "outputs": [
        {
          "internalType": "bytes32",
          "name": "",
          "type": "bytes32"
        }
      ],
      "stateMutability": "view",
      "type": "function"
    },
    {
      "inputs": [
        {
          "internalType": "address[]",
          "name": "targets",
          "type": "address[]"
        },
        {
          "internalType": "uint256[]",
          "name": "values",
          "type": "uint256[]"
        },
        {
          "internalType": "bytes[]",
          "name": "calldatas",
          "type": "bytes[]"
        },
        {
          "internalType": "bytes32",
          "name": "descriptionHash",
          "type": "bytes32"
        }
      ],
      "name": "cancel",
      "outputs": [
        {
          "internalType": "uint256",
          "name": "",
          "type": "uint256"
        }
      ],
      "stateMutability": "nonpayable",
      "type": "function"
    },
    {
      "inputs": [
        {
          "internalType": "uint256",
          "name": "proposalId",
          "type": "uint256"
        },
        {
          "internalType": "uint8",
          "name": "support",
          "type": "uint8"
        }
      ],
      "name": "castVote",
      "outputs": [
        {
          "internalType": "uint256",
          "name": "",
          "type": "uint256"
        }
      ],
      "stateMutability": "nonpayable",
      "type": "function"
    },
    {
      "inputs": [
        {
          "internalType": "uint256",
          "name": "proposalId",
          "type": "uint256"
        },
        {
          "internalType": "uint8",
          "name": "support",
          "type": "uint8"
        },
        {
          "internalType": "uint8",
          "name": "v",
          "type": "uint8"
        },
        {
          "internalType": "bytes32",
          "name": "r",
          "type": "bytes32"
        },
        {
          "internalType": "bytes32",
          "name": "s",
          "type": "bytes32"
        }
      ],
      "name": "castVoteBySig",
      "outputs": [
        {
          "internalType": "uint256",
          "name": "",
          "type": "uint256"
        }
      ],
      "stateMutability": "nonpayable",
      "type": "function"
    },
    {
      "inputs": [
        {
          "internalType": "uint256",
          "name": "proposalId",
          "type": "uint256"
        },
        {
          "internalType": "uint8",
          "name": "support",
          "type": "uint8"
        },
        {
          "internalType": "string",
          "name": "reason",
          "type": "string"
        }
      ],
      "name": "castVoteWithReason",
      "outputs": [
        {
          "internalType": "uint256",
          "name": "",
          "type": "uint256"
        }
      ],
      "stateMutability": "nonpayable",
      "type": "function"
    },
    {
      "inputs": [
        {
          "internalType": "uint256",
          "name": "proposalId",
          "type": "uint256"
        },
        {
          "internalType": "uint8",
          "name": "support",
          "type": "uint8"
        },
        {
          "internalType": "string",
          "name": "reason",
          "type": "string"
        },
        {
          "internalType": "bytes",
          "name": "params",
          "type": "bytes"
        }
      ],
      "name": "castVoteWithReasonAndParams",
      "outputs": [
        {
          "internalType": "uint256",
          "name": "",
          "type": "uint256"
        }
      ],
      "stateMutability": "nonpayable",
      "type": "function"
    },
    {
      "inputs": [
        {
          "internalType": "uint256",
          "name": "proposalId",
          "type": "uint256"
        },
        {
          "internalType": "uint8",
          "name": "support",
          "type": "uint8"
        },
        {
          "internalType": "string",
          "name": "reason",
          "type": "string"
        },
        {
          "internalType": "bytes",
          "name": "params",
          "type": "bytes"
        },
        {
          "internalType": "uint8",
          "name": "v",
          "type": "uint8"
        },
        {
          "internalType": "bytes32",
          "name": "r",
          "type": "bytes32"
        },
        {
          "internalType": "bytes32",
          "name": "s",
          "type": "bytes32"
        }
      ],
      "name": "castVoteWithReasonAndParamsBySig",
      "outputs": [
        {
          "internalType": "uint256",
          "name": "",
          "type": "uint256"
        }
      ],
      "stateMutability": "nonpayable",
      "type": "function"
    },
    {
      "inputs": [],
      "name": "clock",
      "outputs": [
        {
          "internalType": "uint48",
          "name": "",
          "type": "uint48"
        }
      ],
      "stateMutability": "view",
      "type": "function"
    },
    {
      "inputs": [],
      "name": "eip712Domain",
      "outputs": [
        {
          "internalType": "bytes1",
          "name": "fields",
          "type": "bytes1"
        },
        {
          "internalType": "string",
          "name": "name",
          "type": "string"
        },
        {
          "internalType": "string",
          "name": "version",
          "type": "string"
        },
        {
          "internalType": "uint256",
          "name": "chainId",
          "type": "uint256"
        },
        {
          "internalType": "address",
          "name": "verifyingContract",
          "type": "address"
        },
        {
          "internalType": "bytes32",
          "name": "salt",
          "type": "bytes32"
        },
        {
          "internalType": "uint256[]",
          "name": "extensions",
          "type": "uint256[]"
        }
      ],
      "stateMutability": "view",
      "type": "function"
    },
    {
      "inputs": [
        {
          "internalType": "address[]",
          "name": "targets",
          "type": "address[]"
        },
        {
          "internalType": "uint256[]",
          "name": "values",
          "type": "uint256[]"
        },
        {
          "internalType": "bytes[]",
          "name": "calldatas",
          "type": "bytes[]"
        },
        {
          "internalType": "bytes32",
          "name": "descriptionHash",
          "type": "bytes32"
        }
      ],
      "name": "execute",
      "outputs": [
        {
          "internalType": "uint256",
          "name": "",
          "type": "uint256"
        }
      ],
      "stateMutability": "payable",
      "type": "function"
    },
    {
      "inputs": [
        {
          "internalType": "address",
          "name": "account",
          "type": "address"
        },
        {
          "internalType": "uint256",
          "name": "timepoint",
          "type": "uint256"
        }
      ],
      "name": "getVotes",
      "outputs": [
        {
          "internalType": "uint256",
          "name": "",
          "type": "uint256"
        }
      ],
      "stateMutability": "view",
      "type": "function"
    },
    {
      "inputs": [
        {
          "internalType": "address",
          "name": "account",
          "type": "address"
        },
        {
          "internalType": "uint256",
          "name": "timepoint",
          "type": "uint256"
        },
        {
          "internalType": "bytes",
          "name": "params",
          "type": "bytes"
        }
      ],
      "name": "getVotesWithParams",
      "outputs": [
        {
          "internalType": "uint256",
          "name": "",
          "type": "uint256"
        }
      ],
      "stateMutability": "view",
      "type": "function"
    },
    {
      "inputs": [
        {
          "internalType": "uint256",
          "name": "proposalId",
          "type": "uint256"
        },
        {
          "internalType": "address",
          "name": "account",
          "type": "address"
        }
      ],
      "name": "hasVoted",
      "outputs": [
        {
          "internalType": "bool",
          "name": "",
          "type": "bool"
        }
      ],
      "stateMutability": "view",
      "type": "function"
    },
    {
      "inputs": [
        {
          "internalType": "address[]",
          "name": "targets",
          "type": "address[]"
        },
        {
          "internalType": "uint256[]",
          "name": "values",
          "type": "uint256[]"
        },
        {
          "internalType": "bytes[]",
          "name": "calldatas",
          "type": "bytes[]"
        },
        {
          "internalType": "bytes32",
          "name": "descriptionHash",
          "type": "bytes32"
        }
      ],
      "name": "hashProposal",
      "outputs": [
        {
          "internalType": "uint256",
          "name": "",
          "type": "uint256"
        }
      ],
      "stateMutability": "pure",
      "type": "function"
    },
    {
      "inputs": [],
      "name": "name",
      "outputs": [
        {
          "internalType": "string",
          "name": "",
          "type": "string"
        }
      ],
      "stateMutability": "view",
      "type": "function"
    },
    {
      "inputs": [
        {
          "internalType": "address",
          "name": "",
          "type": "address"
        },
        {
          "internalType": "address",
          "name": "",
          "type": "address"
        },
        {
          "internalType": "uint256[]",
          "name": "",
          "type": "uint256[]"
        },
        {
          "internalType": "uint256[]",
          "name": "",
          "type": "uint256[]"
        },
        {
          "internalType": "bytes",
          "name": "",
          "type": "bytes"
        }
      ],
      "name": "onERC1155BatchReceived",
      "outputs": [
        {
          "internalType": "bytes4",
          "name": "",
          "type": "bytes4"
        }
      ],
      "stateMutability": "nonpayable",
      "type": "function"
    },
    {
      "inputs": [
        {
          "internalType": "address",
          "name": "",
          "type": "address"
        },
        {
          "internalType": "address",
          "name": "",
          "type": "address"
        },
        {
          "internalType": "uint256",
          "name": "",
          "type": "uint256"
        },
        {
          "internalType": "uint256",
          "name": "",
          "type": "uint256"
        },
        {
          "internalType": "bytes",
          "name": "",
          "type": "bytes"
        }
      ],
      "name": "onERC1155Received",
      "outputs": [
        {
          "internalType": "bytes4",
          "name": "",
          "type": "bytes4"
        }
      ],
      "stateMutability": "nonpayable",
      "type": "function"
    },
    {
      "inputs": [
        {
          "internalType": "address",
          "name": "",
          "type": "address"
        },
        {
          "internalType": "address",
          "name": "",
          "type": "address"
        },
        {
          "internalType": "uint256",
          "name": "",
          "type": "uint256"
        },
        {
          "internalType": "bytes",
          "name": "",
          "type": "bytes"
        }
      ],
      "name": "onERC721Received",
      "outputs": [
        {
          "internalType": "bytes4",
          "name": "",
          "type": "bytes4"
        }
      ],
      "stateMutability": "nonpayable",
      "type": "function"
    },
    {
      "inputs": [
        {
          "internalType": "uint256",
          "name": "proposalId",
          "type": "uint256"
        }
      ],
      "name": "proposalDeadline",
      "outputs": [
        {
          "internalType": "uint256",
          "name": "",
          "type": "uint256"
        }
      ],
      "stateMutability": "view",
      "type": "function"
    },
    {
      "inputs": [
        {
          "internalType": "uint256",
          "name": "proposalId",
          "type": "uint256"
        }
      ],
      "name": "proposalEta",
      "outputs": [
        {
          "internalType": "uint256",
          "name": "",
          "type": "uint256"
        }
      ],
      "stateMutability": "view",
      "type": "function"
    },
    {
      "inputs": [
        {
          "internalType": "uint256",
          "name": "proposalId",
          "type": "uint256"
        }
      ],
      "name": "proposalProposer",
      "outputs": [
        {
          "internalType": "address",
          "name": "",
          "type": "address"
        }
      ],
      "stateMutability": "view",
      "type": "function"
    },
    {
      "inputs": [
        {
          "internalType": "uint256",
          "name": "proposalId",
          "type": "uint256"
        }
      ],
      "name": "proposalSnapshot",
      "outputs": [
        {
          "internalType": "uint256",
          "name": "",
          "type": "uint256"
        }
      ],
      "stateMutability": "view",
      "type": "function"
    },
    {
      "inputs": [],
      "name": "proposalThreshold",
      "outputs": [
        {
          "internalType": "uint256",
          "name": "",
          "type": "uint256"
        }
      ],
      "stateMutability": "view",
      "type": "function"
    },
    {
      "inputs": [
        {
          "internalType": "uint256",
          "name": "proposalId",
          "type": "uint256"
        }
      ],
      "name": "proposalVotes",
      "outputs": [
        {
          "internalType": "uint256",
          "name": "againstVotes",
          "type": "uint256"
        },
        {
          "internalType": "uint256",
          "name": "forVotes",
          "type": "uint256"
        },
        {
          "internalType": "uint256",
          "name": "abstainVotes",
          "type": "uint256"
        }
      ],
      "stateMutability": "view",
      "type": "function"
    },
    {
      "inputs": [
        {
          "internalType": "address[]",
          "name": "targets",
          "type": "address[]"
        },
        {
          "internalType": "uint256[]",
          "name": "values",
          "type": "uint256[]"
        },
        {
          "internalType": "bytes[]",
          "name": "calldatas",
          "type": "bytes[]"
        },
        {
          "internalType": "string",
          "name": "description",
          "type": "string"
        }
      ],
      "name": "propose",
      "outputs": [
        {
          "internalType": "uint256",
          "name": "",
          "type": "uint256"
        }
      ],
      "stateMutability": "nonpayable",
      "type": "function"
    },
    {
      "inputs": [
        {
          "internalType": "address[]",
          "name": "targets",
          "type": "address[]"
        },
        {
          "internalType": "uint256[]",
          "name": "values",
          "type": "uint256[]"
        },
        {
          "internalType": "bytes[]",
          "name": "calldatas",
          "type": "bytes[]"
        },
        {
          "internalType": "bytes32",
          "name": "descriptionHash",
          "type": "bytes32"
        }
      ],
      "name": "queue",
      "outputs": [
        {
          "internalType": "uint256",
          "name": "",
          "type": "uint256"
        }
      ],
      "stateMutability": "nonpayable",
      "type": "function"
    },
    {
      "inputs": [
        {
          "internalType": "uint256",
          "name": "blockNumber",
          "type": "uint256"
        }
      ],
      "name": "quorum",
      "outputs": [
        {
          "internalType": "uint256",
          "name": "",
          "type": "uint256"
        }
      ],
      "stateMutability": "view",
      "type": "function"
    },
    {
      "inputs": [],
      "name": "quorumDenominator",
      "outputs": [
        {
          "internalType": "uint256",
          "name": "",
          "type": "uint256"
        }
      ],
      "stateMutability": "view",
      "type": "function"
    },
    {
      "inputs": [
        {
          "internalType": "uint256",
          "name": "timepoint",
          "type": "uint256"
        }
      ],
      "name": "quorumNumerator",
      "outputs": [
        {
          "internalType": "uint256",
          "name": "",
          "type": "uint256"
        }
      ],
      "stateMutability": "view",
      "type": "function"
    },
    {
      "inputs": [],
      "name": "quorumNumerator",
      "outputs": [
        {
          "internalType": "uint256",
          "name": "",
          "type": "uint256"
        }
      ],
      "stateMutability": "view",
      "type": "function"
    },
    {
      "inputs": [
        {
          "internalType": "address",
          "name": "target",
          "type": "address"
        },
        {
          "internalType": "uint256",
          "name": "value",
          "type": "uint256"
        },
        {
          "internalType": "bytes",
          "name": "data",
          "type": "bytes"
        }
      ],
      "name": "relay",
      "outputs": [],
      "stateMutability": "payable",
      "type": "function"
    },
    {
      "inputs": [
        {
          "internalType": "uint256",
          "name": "newProposalThreshold",
          "type": "uint256"
        }
      ],
      "name": "setProposalThreshold",
      "outputs": [],
      "stateMutability": "nonpayable",
      "type": "function"
    },
    {
      "inputs": [
        {
          "internalType": "uint256",
          "name": "newVotingDelay",
          "type": "uint256"
        }
      ],
      "name": "setVotingDelay",
      "outputs": [],
      "stateMutability": "nonpayable",
      "type": "function"
    },
    {
      "inputs": [
        {
          "internalType": "uint256",
          "name": "newVotingPeriod",
          "type": "uint256"
        }
      ],
      "name": "setVotingPeriod",
      "outputs": [],
      "stateMutability": "nonpayable",
      "type": "function"
    },
    {
      "inputs": [
        {
          "internalType": "uint256",
          "name": "proposalId",
          "type": "uint256"
        }
      ],
      "name": "state",
      "outputs": [
        {
          "internalType": "enum IGovernor.ProposalState",
          "name": "",
          "type": "uint8"
        }
      ],
      "stateMutability": "view",
      "type": "function"
    },
    {
      "inputs": [
        {
          "internalType": "bytes4",
          "name": "interfaceId",
          "type": "bytes4"
        }
      ],
      "name": "supportsInterface",
      "outputs": [
        {
          "internalType": "bool",
          "name": "",
          "type": "bool"
        }
      ],
      "stateMutability": "view",
      "type": "function"
    },
    {
      "inputs": [],
      "name": "timelock",
      "outputs": [
        {
          "internalType": "address",
          "name": "",
          "type": "address"
        }
      ],
      "stateMutability": "view",
      "type": "function"
    },
    {
      "inputs": [],
      "name": "token",
      "outputs": [
        {
          "internalType": "contract IERC5805",
          "name": "",
          "type": "address"
        }
      ],
      "stateMutability": "view",
      "type": "function"
    },
    {
      "inputs": [
        {
          "internalType": "uint256",
          "name": "newQuorumNumerator",
          "type": "uint256"
        }
      ],
      "name": "updateQuorumNumerator",
      "outputs": [],
      "stateMutability": "nonpayable",
      "type": "function"
    },
    {
      "inputs": [
        {
          "internalType": "contract TimelockController",
          "name": "newTimelock",
          "type": "address"
        }
      ],
      "name": "updateTimelock",
      "outputs": [],
      "stateMutability": "nonpayable",
      "type": "function"
    },
    {
      "inputs": [],
      "name": "version",
      "outputs": [
        {
          "internalType": "string",
          "name": "",
          "type": "string"
        }
      ],
      "stateMutability": "view",
      "type": "function"
    },
    {
      "inputs": [],
      "name": "votingDelay",
      "outputs": [
        {
          "internalType": "uint256",
          "name": "",
          "type": "uint256"
        }
      ],
      "stateMutability": "view",
      "type": "function"
    },
    {
      "inputs": [],
      "name": "votingPeriod",
      "outputs": [
        {
          "internalType": "uint256",
          "name": "",
          "type": "uint256"
        }
      ],
      "stateMutability": "view",
      "type": "function"
    },
    {
      "stateMutability": "payable",
      "type": "receive"
    }
  ],
  "bytecode": "0x6101806040523480156200001257600080fd5b506040516200536738038062005367833981016040819052620000359162000955565b80600483600161b2fa670de0b6b3a76400006040518060400160405280600c81526020016b233ab73223b7bb32b93737b960a11b815250806200007d6200019460201b60201c565b6200008a826000620001af565b610120526200009b816001620001af565b61014052815160208084019190912060e052815190820120610100524660a0526200012960e05161010051604080517f8b73c3c69bb8fe3d512ecc4cf759cc79239f7b179b0ffacaa9a75d522b39400f60208201529081019290925260608201524660808201523060a082015260009060c00160405160208183030381529060405280519060200120905090565b60805250503060c052600262000140828262000a3b565b506200014e905083620001e8565b620001598262000229565b6200016481620002d0565b5050506001600160a01b0316610160526200017f8162000311565b506200018b8162000490565b50505062000bc9565b6040805180820190915260018152603160f81b602082015290565b6000602083511015620001cf57620001c783620004f9565b9050620001e2565b81620001dc848262000a3b565b5060ff90505b92915050565b60065460408051918252602082018390527fc565b045403dc03c2eea82b81a0465edad9e2e7fc4d97e11421c209da93d7a93910160405180910390a1600655565b600081116200028f5760405162461bcd60e51b815260206004820152602760248201527f476f7665726e6f7253657474696e67733a20766f74696e6720706572696f6420604482015266746f6f206c6f7760c81b60648201526084015b60405180910390fd5b60075460408051918252602082018390527f7e3f7f0708a84de9203036abaa450dccc85ad5ff52f78c170f3edb55cf5e8828910160405180910390a1600755565b60085460408051918252602082018390527fccb45da8d5717e6c4544694297c4ba5cf151d455c9bb0ed4fc7a38411bc05461910160405180910390a1600855565b6064811115620003965760405162461bcd60e51b815260206004820152604360248201527f476f7665726e6f72566f74657351756f72756d4672616374696f6e3a2071756f60448201527f72756d4e756d657261746f72206f7665722071756f72756d44656e6f6d696e616064820152623a37b960e91b608482015260a40162000286565b6000620003a26200053c565b90508015801590620003b45750600b54155b156200041c576040805180820190915260008152600b9060208101620003da846200056b565b6001600160e01b0390811690915282546001810184556000938452602093849020835194909301519091166401000000000263ffffffff909316929092179101555b620004516200043c6200042e620005da565b65ffffffffffff1662000651565b62000447846200056b565b600b9190620006b8565b505060408051828152602081018490527f0553476bf02ef2726e8ce5ced78d63e26e602e4a2257b1f559418e24b4633997910160405180910390a15050565b600c54604080516001600160a01b03928316815291831660208301527f08f74ea46ef7894f65eabfb5e6e695de773a000b47c529ab559178069b226401910160405180910390a1600c80546001600160a01b0319166001600160a01b0392909216919091179055565b600080829050601f8151111562000527578260405163305a27a960e01b815260040162000286919062000b07565b8051620005348262000b58565b179392505050565b600b5460009015620005625762000554600b620006d5565b6001600160e01b0316905090565b600a545b905090565b60006001600160e01b03821115620005d65760405162461bcd60e51b815260206004820152602760248201527f53616665436173743a2076616c756520646f65736e27742066697420696e20326044820152663234206269747360c81b606482015260840162000286565b5090565b6000610160516001600160a01b03166391ddadf46040518163ffffffff1660e01b8152600401602060405180830381865afa9250505080156200063c575060408051601f3d908101601f19168201909252620006399181019062000b7d565b60015b6200064c57620005664362000723565b919050565b600063ffffffff821115620005d65760405162461bcd60e51b815260206004820152602660248201527f53616665436173743a2076616c756520646f65736e27742066697420696e203360448201526532206269747360d01b606482015260840162000286565b600080620006c88585856200078c565b915091505b935093915050565b8054600090801562000719576200070183620006f360018462000ba7565b600091825260209091200190565b5464010000000090046001600160e01b03166200071c565b60005b9392505050565b600065ffffffffffff821115620005d65760405162461bcd60e51b815260206004820152602660248201527f53616665436173743a2076616c756520646f65736e27742066697420696e203460448201526538206269747360d01b606482015260840162000286565b825460009081908015620008e1576000620007ae87620006f360018562000ba7565b60408051808201909152905463ffffffff8082168084526401000000009092046001600160e01b031660208401529192509087161015620008325760405162461bcd60e51b815260206004820152601b60248201527f436865636b706f696e743a2064656372656173696e67206b6579730000000000604482015260640162000286565b805163ffffffff8088169116036200088057846200085788620006f360018662000ba7565b80546001600160e01b03929092166401000000000263ffffffff909216919091179055620008d0565b6040805180820190915263ffffffff80881682526001600160e01b0380881660208085019182528b54600181018d5560008d81529190912094519151909216640100000000029216919091179101555b602001519250839150620006cd9050565b50506040805180820190915263ffffffff80851682526001600160e01b0380851660208085019182528854600181018a5560008a815291822095519251909316640100000000029190931617920191909155905081620006cd565b6001600160a01b03811681146200095257600080fd5b50565b600080604083850312156200096957600080fd5b825162000976816200093c565b602084015190925062000989816200093c565b809150509250929050565b634e487b7160e01b600052604160045260246000fd5b600181811c90821680620009bf57607f821691505b602082108103620009e057634e487b7160e01b600052602260045260246000fd5b50919050565b601f82111562000a36576000816000526020600020601f850160051c8101602086101562000a115750805b601f850160051c820191505b8181101562000a325782815560010162000a1d565b5050505b505050565b81516001600160401b0381111562000a575762000a5762000994565b62000a6f8162000a688454620009aa565b84620009e6565b602080601f83116001811462000aa7576000841562000a8e5750858301515b600019600386901b1c1916600185901b17855562000a32565b600085815260208120601f198616915b8281101562000ad85788860151825594840194600190910190840162000ab7565b508582101562000af75787850151600019600388901b60f8161c191681555b5050505050600190811b01905550565b60006020808352835180602085015260005b8181101562000b375785810183015185820160400152820162000b19565b506000604082860101526040601f19601f8301168501019250505092915050565b80516020808301519190811015620009e05760001960209190910360031b1b16919050565b60006020828403121562000b9057600080fd5b815165ffffffffffff811681146200071c57600080fd5b81810381811115620001e257634e487b7160e01b600052601160045260246000fd5b60805160a05160c05160e0516101005161012051610140516101605161471c62000c4b600039600081816109e1015281816110e0015281816117f101528181612667015261288b0152600061179d0152600061177301526000612a8801526000612a60015260006129bb015260006129e501526000612a0f015261471c6000f3fe6080604052600436106102815760003560e01c80637b3c71d31161014f578063c01f9e37116100c1578063ea0217cf1161007a578063ea0217cf14610923578063eb9019d414610943578063ece40cc114610963578063f23a6e6114610983578063f8ce560a146109af578063fc0c546a146109cf57600080fd5b8063c01f9e371461081f578063c28bc2fa14610858578063c59057e41461086b578063d33219b41461088b578063dd4e2ba5146108a9578063deaaa7cc146108ef57600080fd5b80639a802a6d116101135780639a802a6d14610769578063a7713a7014610789578063a890c9101461079e578063ab58fb8e146107be578063b58131b0146107de578063bc197c81146107f357600080fd5b80637b3c71d3146106c15780637d5e81e2146106e157806384b0196e1461070157806391ddadf41461072957806397c3d3341461075557600080fd5b80633932abb1116101f3578063544ffc9c116101ac578063544ffc9c146105c257806354fd4d501461061757806356781388146106415780635f398a141461066157806360c4247f1461068157806370b0f660146106a157600080fd5b80633932abb1146104e15780633bccf4fd146104f65780633e4f49e6146105165780634385963214610543578063452115d61461058d5780634bf5d7e9146105ad57600080fd5b8063143489d011610245578063143489d0146103ab578063150b7a0214610400578063160cbed7146104445780632656227d146104645780632d63f693146104775780632fe3e261146104ad57600080fd5b806301ffc9a7146102f157806302a251a314610326578063034201811461034957806306f3f9e61461036957806306fdde031461038957600080fd5b366102ec573061028f610a03565b6001600160a01b0316146102ea5760405162461bcd60e51b815260206004820152601f60248201527f476f7665726e6f723a206d7573742073656e6420746f206578656375746f720060448201526064015b60405180910390fd5b005b600080fd5b3480156102fd57600080fd5b5061031161030c36600461379d565b610a1c565b60405190151581526020015b60405180910390f35b34801561033257600080fd5b5061033b610a2d565b60405190815260200161031d565b34801561035557600080fd5b5061033b6103643660046138eb565b610a38565b34801561037557600080fd5b506102ea610384366004613991565b610b30565b34801561039557600080fd5b5061039e610bba565b60405161031d91906139fa565b3480156103b757600080fd5b506103e86103c6366004613991565b600090815260036020526040902054600160401b90046001600160a01b031690565b6040516001600160a01b03909116815260200161031d565b34801561040c57600080fd5b5061042b61041b366004613a22565b630a85bd0160e11b949350505050565b6040516001600160e01b0319909116815260200161031d565b34801561045057600080fd5b5061033b61045f366004613c01565b610c4c565b61033b610472366004613c01565b610e4d565b34801561048357600080fd5b5061033b610492366004613991565b6000908152600360205260409020546001600160401b031690565b3480156104b957600080fd5b5061033b7fb3b3f3b703cd84ce352197dcff232b1b5d3cfb2025ce47cf04742d0651f1af8881565b3480156104ed57600080fd5b5061033b610f3f565b34801561050257600080fd5b5061033b610511366004613c90565b610f4a565b34801561052257600080fd5b50610536610531366004613991565b610fc0565b60405161031d9190613cf4565b34801561054f57600080fd5b5061031161055e366004613d1c565b60008281526009602090815260408083206001600160a01b038516845260030190915290205460ff1692915050565b34801561059957600080fd5b5061033b6105a8366004613c01565b610fcb565b3480156105b957600080fd5b5061039e6110dc565b3480156105ce57600080fd5b506105fc6105dd366004613991565b6000908152600960205260409020805460018201546002909201549092565b6040805193845260208401929092529082015260600161031d565b34801561062357600080fd5b506040805180820190915260018152603160f81b602082015261039e565b34801561064d57600080fd5b5061033b61065c366004613d4c565b61119e565b34801561066d57600080fd5b5061033b61067c366004613d78565b6111c7565b34801561068d57600080fd5b5061033b61069c366004613991565b611211565b3480156106ad57600080fd5b506102ea6106bc366004613991565b6112c2565b3480156106cd57600080fd5b5061033b6106dc366004613dfb565b611349565b3480156106ed57600080fd5b5061033b6106fc366004613e54565b611391565b34801561070d57600080fd5b50610716611765565b60405161031d9796959493929190613f44565b34801561073557600080fd5b5061073e6117ed565b60405165ffffffffffff909116815260200161031d565b34801561076157600080fd5b50606461033b565b34801561077557600080fd5b5061033b610784366004613fa6565b611876565b34801561079557600080fd5b5061033b61188d565b3480156107aa57600080fd5b506102ea6107b9366004613ffe565b6118b7565b3480156107ca57600080fd5b5061033b6107d9366004613991565b61193e565b3480156107ea57600080fd5b5061033b6119d8565b3480156107ff57600080fd5b5061042b61080e36600461401b565b63bc197c8160e01b95945050505050565b34801561082b57600080fd5b5061033b61083a366004613991565b6000908152600360205260409020600101546001600160401b031690565b6102ea6108663660046140ae565b6119e3565b34801561087757600080fd5b5061033b610886366004613c01565b611af2565b34801561089757600080fd5b50600c546001600160a01b03166103e8565b3480156108b557600080fd5b506040805180820190915260208082527f737570706f72743d627261766f2671756f72756d3d666f722c6162737461696e9082015261039e565b3480156108fb57600080fd5b5061033b7f150214d74d59b7d1e90c73fc22ef3d991dd0a76b046543d4d80ab92d2a50328f81565b34801561092f57600080fd5b506102ea61093e366004613991565b611b2c565b34801561094f57600080fd5b5061033b61095e3660046140f1565b611bb3565b34801561096f57600080fd5b506102ea61097e366004613991565b611bd4565b34801561098f57600080fd5b5061042b61099e36600461411d565b63f23a6e6160e01b95945050505050565b3480156109bb57600080fd5b5061033b6109ca366004613991565b611c5b565b3480156109db57600080fd5b506103e87f000000000000000000000000000000000000000000000000000000000000000081565b6000610a17600c546001600160a01b031690565b905090565b6000610a2782611c66565b92915050565b6000610a1760075490565b600080610adc610ad47fb3b3f3b703cd84ce352197dcff232b1b5d3cfb2025ce47cf04742d0651f1af888c8c8c8c604051610a74929190614185565b60405180910390208b80519060200120604051602001610ab9959493929190948552602085019390935260ff9190911660408401526060830152608082015260a00190565b60405160208183030381529060405280519060200120611c8b565b868686611cb8565b9050610b228a828b8b8b8080601f0160208091040260200160405190810160405280939291908181526020018383808284376000920191909152508d9250611cd6915050565b9a9950505050505050505050565b610b38610a03565b6001600160a01b0316336001600160a01b031614610b685760405162461bcd60e51b81526004016102e190614195565b30610b71610a03565b6001600160a01b031614610bae5760008036604051610b91929190614185565b604051809103902090505b80610ba76004611e2b565b03610b9c57505b610bb781611eaa565b50565b606060028054610bc9906141c7565b80601f0160208091040260200160405190810160405280929190818152602001828054610bf5906141c7565b8015610c425780601f10610c1757610100808354040283529160200191610c42565b820191906000526020600020905b815481529060010190602001808311610c2557829003601f168201915b5050505050905090565b600080610c5b86868686611af2565b90506004610c6882610fc0565b6007811115610c7957610c79613cde565b14610c965760405162461bcd60e51b81526004016102e190614201565b600c546040805163793d064960e11b815290516000926001600160a01b03169163f27a0c929160048083019260209291908290030181865afa158015610ce0573d6000803e3d6000fd5b505050506040513d601f19601f82011682018060405250810190610d049190614242565b600c5460405163b1c5f42760e01b81529192506001600160a01b03169063b1c5f42790610d3e908a908a908a906000908b906004016142ef565b602060405180830381865afa158015610d5b573d6000803e3d6000fd5b505050506040513d601f19601f82011682018060405250810190610d7f9190614242565b6000838152600d602052604080822092909255600c5491516308f2a0bb60e41b81526001600160a01b0390921691638f2a0bb091610dca918b918b918b91908b90899060040161433d565b600060405180830381600087803b158015610de457600080fd5b505af1158015610df8573d6000803e3d6000fd5b505050507f9a2e42fd6722813d69113e7d0079d3d940171428df7373df9c7f7617cfda2892828242610e2a91906143ab565b604080519283526020830191909152015b60405180910390a15095945050505050565b600080610e5c86868686611af2565b90506000610e6982610fc0565b90506004816007811115610e7f57610e7f613cde565b1480610e9c57506005816007811115610e9a57610e9a613cde565b145b610eb85760405162461bcd60e51b81526004016102e190614201565b60008281526003602052604090819020600201805460ff19166001179055517f712ae1383f79ac853f8d882153778e0260ef8f03b504e2866e0593e04d2b291f90610f069084815260200190565b60405180910390a1610f1b8288888888612018565b610f2882888888886120b2565b610f3582888888886120bf565b5095945050505050565b6000610a1760065490565b604080517f150214d74d59b7d1e90c73fc22ef3d991dd0a76b046543d4d80ab92d2a50328f602082015290810186905260ff851660608201526000908190610f9890610ad490608001610ab9565b9050610fb5878288604051806020016040528060008152506120f8565b979650505050505050565b6000610a2782612124565b600080610fda86868686611af2565b90506000610fe782610fc0565b6007811115610ff857610ff8613cde565b146110455760405162461bcd60e51b815260206004820152601c60248201527f476f7665726e6f723a20746f6f206c61746520746f2063616e63656c0000000060448201526064016102e1565b600081815260036020526040902054600160401b90046001600160a01b0316336001600160a01b0316146110c65760405162461bcd60e51b815260206004820152602260248201527f476f7665726e6f723a206f6e6c792070726f706f7365722063616e2063616e63604482015261195b60f21b60648201526084016102e1565b6110d28686868661226e565b9695505050505050565b60607f00000000000000000000000000000000000000000000000000000000000000006001600160a01b0316634bf5d7e96040518163ffffffff1660e01b8152600401600060405180830381865afa92505050801561115d57506040513d6000823e601f3d908101601f1916820160405261115a91908101906143be565b60015b611199575060408051808201909152601d81527f6d6f64653d626c6f636b6e756d6265722666726f6d3d64656661756c74000000602082015290565b919050565b6000803390506111bf848285604051806020016040528060008152506120f8565b949350505050565b600080339050610fb587828888888080601f0160208091040260200160405190810160405280939291908181526020018383808284376000920191909152508a9250611cd6915050565b600b54600090808203611228575050600a54919050565b6000600b61123760018461442b565b815481106112475761124761443e565b60009182526020918290206040805180820190915291015463ffffffff8116808352600160201b9091046001600160e01b0316928201929092529150841061129d57602001516001600160e01b03169392505050565b6112b16112a98561227c565b600b906122e5565b6001600160e01b0316949350505050565b6112ca610a03565b6001600160a01b0316336001600160a01b0316146112fa5760405162461bcd60e51b81526004016102e190614195565b30611303610a03565b6001600160a01b0316146113405760008036604051611323929190614185565b604051809103902090505b806113396004611e2b565b0361132e57505b610bb781612398565b6000803390506110d286828787878080601f0160208091040260200160405190810160405280939291908181526020018383808284376000920191909152506120f892505050565b60003361139e81846123d9565b6113ea5760405162461bcd60e51b815260206004820152601d60248201527f476f7665726e6f723a2070726f706f736572207265737472696374656400000060448201526064016102e1565b60006113f46117ed565b65ffffffffffff1690506114066119d8565b6114158361095e60018561442b565b101561147d5760405162461bcd60e51b815260206004820152603160248201527f476f7665726e6f723a2070726f706f73657220766f7465732062656c6f7720706044820152701c9bdc1bdcd85b081d1a1c995cda1bdb19607a1b60648201526084016102e1565b60006114928888888880519060200120611af2565b905086518851146114b55760405162461bcd60e51b81526004016102e190614454565b85518851146114d65760405162461bcd60e51b81526004016102e190614454565b60008851116115225760405162461bcd60e51b815260206004820152601860248201527711dbdd995c9b9bdc8e88195b5c1d1e481c1c9bdc1bdcd85b60421b60448201526064016102e1565b6000818152600360205260409020546001600160401b0316156115915760405162461bcd60e51b815260206004820152602160248201527f476f7665726e6f723a2070726f706f73616c20616c72656164792065786973746044820152607360f81b60648201526084016102e1565b600061159b610f3f565b6115a590846143ab565b905060006115b1610a2d565b6115bb90836143ab565b90506040518060e001604052806115d1846124c4565b6001600160401b031681526001600160a01b0387166020820152600060408201526060016115fe836124c4565b6001600160401b039081168252600060208084018290526040808501839052606094850183905288835260038252918290208551815492870151878501519186166001600160e01b031990941693909317600160401b6001600160a01b039094168402176001600160e01b0316600160e01b60e09290921c91909102178155938501516080860151908416921c0217600183015560a08301516002909201805460c09094015161ffff1990941692151561ff00191692909217610100931515939093029290921790558a517f7d84a6263ae0d98d3329bd7b46bb4e8d6f98cd35a7adb45c274c8b7fd5ebd5e091859188918e918e9181111561170257611702613820565b60405190808252806020026020018201604052801561173557816020015b60608152602001906001900390816117205790505b508d88888f60405161174f99989796959493929190614495565b60405180910390a1509098975050505050505050565b6000606080828080836117987f00000000000000000000000000000000000000000000000000000000000000008361252c565b6117c37f0000000000000000000000000000000000000000000000000000000000000000600161252c565b60408051600080825260208201909252600f60f81b9b939a50919850469750309650945092509050565b60007f00000000000000000000000000000000000000000000000000000000000000006001600160a01b03166391ddadf46040518163ffffffff1660e01b8152600401602060405180830381865afa925050508015611869575060408051601f3d908101601f191682019092526118669181019061456c565b60015b61119957610a17436125d7565b600061188384848461263e565b90505b9392505050565b600b54600090156118b0576118a2600b6126d4565b6001600160e01b0316905090565b50600a5490565b6118bf610a03565b6001600160a01b0316336001600160a01b0316146118ef5760405162461bcd60e51b81526004016102e190614195565b306118f8610a03565b6001600160a01b0316146119355760008036604051611918929190614185565b604051809103902090505b8061192e6004611e2b565b0361192357505b610bb781612704565b600c546000828152600d602052604080822054905163d45c443560e01b81526004810191909152909182916001600160a01b039091169063d45c443590602401602060405180830381865afa15801561199b573d6000803e3d6000fd5b505050506040513d601f19601f820116820180604052508101906119bf9190614242565b9050806001146119cf5780611886565b60009392505050565b6000610a1760085490565b6119eb610a03565b6001600160a01b0316336001600160a01b031614611a1b5760405162461bcd60e51b81526004016102e190614195565b30611a24610a03565b6001600160a01b031614611a615760008036604051611a44929190614185565b604051809103902090505b80611a5a6004611e2b565b03611a4f57505b600080856001600160a01b0316858585604051611a7f929190614185565b60006040518083038185875af1925050503d8060008114611abc576040519150601f19603f3d011682016040523d82523d6000602084013e611ac1565b606091505b5091509150611ae982826040518060600160405280602881526020016146bf6028913961276d565b50505050505050565b600084848484604051602001611b0b9493929190614594565b60408051601f19818403018152919052805160209091012095945050505050565b611b34610a03565b6001600160a01b0316336001600160a01b031614611b645760405162461bcd60e51b81526004016102e190614195565b30611b6d610a03565b6001600160a01b031614611baa5760008036604051611b8d929190614185565b604051809103902090505b80611ba36004611e2b565b03611b9857505b610bb781612786565b60006118868383611bcf60408051602081019091526000815290565b61263e565b611bdc610a03565b6001600160a01b0316336001600160a01b031614611c0c5760405162461bcd60e51b81526004016102e190614195565b30611c15610a03565b6001600160a01b031614611c525760008036604051611c35929190614185565b604051809103902090505b80611c4b6004611e2b565b03611c4057505b610bb781612827565b6000610a2782612868565b60006001600160e01b03198216636e665ced60e01b1480610a275750610a2782612912565b6000610a27611c986129ae565b8360405161190160f01b8152600281019290925260228201526042902090565b6000806000611cc987878787612ad9565b91509150610f3581612b93565b60008581526003602052604081206001611cef88610fc0565b6007811115611d0057611d00613cde565b14611d595760405162461bcd60e51b815260206004820152602360248201527f476f7665726e6f723a20766f7465206e6f742063757272656e746c792061637460448201526269766560e81b60648201526084016102e1565b8054600090611d739088906001600160401b03168661263e565b9050611d828888888488612cd8565b8351600003611dd757866001600160a01b03167fb8e138887d0aa13bab447e82de9d5c1777041ecd21ca36ba824ff1e6c07ddda489888489604051611dca94939291906145df565b60405180910390a2610fb5565b866001600160a01b03167fe2babfbac5889a709b63bb7f598b324e08bc5a4fb9ec647fb3cbc9ec07eb87128988848989604051611e18959493929190614607565b60405180910390a2979650505050505050565b6000611e468254600f81810b600160801b909204900b131590565b15611e6457604051631ed9509560e11b815260040160405180910390fd5b508054600f0b6000818152600180840160205260408220805492905583546fffffffffffffffffffffffffffffffff191692016001600160801b03169190911790915590565b6064811115611f2d5760405162461bcd60e51b815260206004820152604360248201527f476f7665726e6f72566f74657351756f72756d4672616374696f6e3a2071756f60448201527f72756d4e756d657261746f72206f7665722071756f72756d44656e6f6d696e616064820152623a37b960e91b608482015260a4016102e1565b6000611f3761188d565b90508015801590611f485750600b54155b15611fac576040805180820190915260008152600b9060208101611f6b84612e52565b6001600160e01b039081169091528254600181018455600093845260209384902083519490930151909116600160201b0263ffffffff909316929092179101555b611fd9611fc7611fba6117ed565b65ffffffffffff1661227c565b611fd084612e52565b600b9190612ebb565b505060408051828152602081018490527f0553476bf02ef2726e8ce5ced78d63e26e602e4a2257b1f559418e24b4633997910160405180910390a15050565b30612021610a03565b6001600160a01b0316146120ab5760005b84518110156120a957306001600160a01b03168582815181106120575761205761443e565b60200260200101516001600160a01b0316036120a1576120a18382815181106120825761208261443e565b6020026020010151805190602001206004612ed690919063ffffffff16565b600101612032565b505b5050505050565b6120ab8585858585612f12565b306120c8610a03565b6001600160a01b0316146120ab57600454600f81810b600160801b909204900b13156120ab5760006004556120ab565b600061211b8585858561211660408051602081019091526000815290565b611cd6565b95945050505050565b60008061213083612f86565b9050600481600781111561214657612146613cde565b146121515792915050565b6000838152600d60205260409020548061216c575092915050565b600c54604051632ab0f52960e01b8152600481018390526001600160a01b0390911690632ab0f52990602401602060405180830381865afa1580156121b5573d6000803e3d6000fd5b505050506040513d601f19601f820116820180604052508101906121d9919061464d565b156121e8575060079392505050565b600c54604051632c258a9f60e11b8152600481018390526001600160a01b039091169063584b153e90602401602060405180830381865afa158015612231573d6000803e3d6000fd5b505050506040513d601f19601f82011682018060405250810190612255919061464d565b15612264575060059392505050565b5060029392505050565b600061211b858585856130c6565b600063ffffffff8211156122e15760405162461bcd60e51b815260206004820152602660248201527f53616665436173743a2076616c756520646f65736e27742066697420696e203360448201526532206269747360d01b60648201526084016102e1565b5090565b81546000908181600581111561234257600061230084613178565b61230a908561442b565b60008881526020902090915081015463ffffffff908116908716101561233257809150612340565b61233d8160016143ab565b92505b505b600061235087878585613260565b9050801561238b576123758761236760018461442b565b600091825260209091200190565b54600160201b90046001600160e01b0316610fb5565b6000979650505050505050565b60065460408051918252602082018390527fc565b045403dc03c2eea82b81a0465edad9e2e7fc4d97e11421c209da93d7a93910160405180910390a1600655565b805160009060348110156123f1576001915050610a27565b82810160131901516001600160a01b031981166b046e0e4dee0dee6cae47a60f60a31b1461242457600192505050610a27565b60008061243260288561442b565b90505b838110156124a3576000806124698884815181106124555761245561443e565b01602001516001600160f81b0319166132be565b91509150816124815760019650505050505050610a27565b8060ff166004856001600160a01b0316901b1793505050806001019050612435565b50856001600160a01b0316816001600160a01b031614935050505092915050565b60006001600160401b038211156122e15760405162461bcd60e51b815260206004820152602660248201527f53616665436173743a2076616c756520646f65736e27742066697420696e203660448201526534206269747360d01b60648201526084016102e1565b606060ff83146125465761253f83613350565b9050610a27565b818054612552906141c7565b80601f016020809104026020016040519081016040528092919081815260200182805461257e906141c7565b80156125cb5780601f106125a0576101008083540402835291602001916125cb565b820191906000526020600020905b8154815290600101906020018083116125ae57829003601f168201915b50505050509050610a27565b600065ffffffffffff8211156122e15760405162461bcd60e51b815260206004820152602660248201527f53616665436173743a2076616c756520646f65736e27742066697420696e203460448201526538206269747360d01b60648201526084016102e1565b604051630748d63560e31b81526001600160a01b038481166004830152602482018490526000917f000000000000000000000000000000000000000000000000000000000000000090911690633a46b1a890604401602060405180830381865afa1580156126b0573d6000803e3d6000fd5b505050506040513d601f19601f820116820180604052508101906118839190614242565b805460009080156119cf576126ee8361236760018461442b565b54600160201b90046001600160e01b0316611886565b600c54604080516001600160a01b03928316815291831660208301527f08f74ea46ef7894f65eabfb5e6e695de773a000b47c529ab559178069b226401910160405180910390a1600c80546001600160a01b0319166001600160a01b0392909216919091179055565b6060831561277c575081611886565b611886838361338f565b600081116127e65760405162461bcd60e51b815260206004820152602760248201527f476f7665726e6f7253657474696e67733a20766f74696e6720706572696f6420604482015266746f6f206c6f7760c81b60648201526084016102e1565b60075460408051918252602082018390527f7e3f7f0708a84de9203036abaa450dccc85ad5ff52f78c170f3edb55cf5e8828910160405180910390a1600755565b60085460408051918252602082018390527fccb45da8d5717e6c4544694297c4ba5cf151d455c9bb0ed4fc7a38411bc05461910160405180910390a1600855565b6000606461287583611211565b604051632394e7a360e21b8152600481018590527f00000000000000000000000000000000000000000000000000000000000000006001600160a01b031690638e539e8c90602401602060405180830381865afa1580156128da573d6000803e3d6000fd5b505050506040513d601f19601f820116820180604052508101906128fe9190614242565b612908919061466f565b610a27919061469c565b600063288ace0360e11b6318df743f60e31b63bf26d89760e01b6379dd796f60e01b6001600160e01b0319861682148061295857506001600160e01b0319868116908216145b8061296f57506001600160e01b0319868116908516145b8061298a57506001600160e01b03198616630271189760e51b145b806110d257506301ffc9a760e01b6001600160e01b03198716149695505050505050565b6000306001600160a01b037f000000000000000000000000000000000000000000000000000000000000000016148015612a0757507f000000000000000000000000000000000000000000000000000000000000000046145b15612a3157507f000000000000000000000000000000000000000000000000000000000000000090565b610a17604080517f8b73c3c69bb8fe3d512ecc4cf759cc79239f7b179b0ffacaa9a75d522b39400f60208201527f0000000000000000000000000000000000000000000000000000000000000000918101919091527f000000000000000000000000000000000000000000000000000000000000000060608201524660808201523060a082015260009060c00160405160208183030381529060405280519060200120905090565b6000806fa2a8918ca85bafe22016d0b997e4df60600160ff1b03831115612b065750600090506003612b8a565b6040805160008082526020820180845289905260ff881692820192909252606081018690526080810185905260019060a0016020604051602081039080840390855afa158015612b5a573d6000803e3d6000fd5b5050604051601f1901519150506001600160a01b038116612b8357600060019250925050612b8a565b9150600090505b94509492505050565b6000816004811115612ba757612ba7613cde565b03612baf5750565b6001816004811115612bc357612bc3613cde565b03612c0b5760405162461bcd60e51b815260206004820152601860248201527745434453413a20696e76616c6964207369676e617475726560401b60448201526064016102e1565b6002816004811115612c1f57612c1f613cde565b03612c6c5760405162461bcd60e51b815260206004820152601f60248201527f45434453413a20696e76616c6964207369676e6174757265206c656e6774680060448201526064016102e1565b6003816004811115612c8057612c80613cde565b03610bb75760405162461bcd60e51b815260206004820152602260248201527f45434453413a20696e76616c6964207369676e6174757265202773272076616c604482015261756560f01b60648201526084016102e1565b60008581526009602090815260408083206001600160a01b0388168452600381019092529091205460ff1615612d605760405162461bcd60e51b815260206004820152602760248201527f476f7665726e6f72566f74696e6753696d706c653a20766f746520616c726561604482015266191e4818d85cdd60ca1b60648201526084016102e1565b6001600160a01b03851660009081526003820160205260409020805460ff1916600117905560ff8416612dac5782816000016000828254612da191906143ab565b909155506120a99050565b60001960ff851601612dcc5782816001016000828254612da191906143ab565b60011960ff851601612dec5782816002016000828254612da191906143ab565b60405162461bcd60e51b815260206004820152603560248201527f476f7665726e6f72566f74696e6753696d706c653a20696e76616c69642076616044820152746c756520666f7220656e756d20566f74655479706560581b60648201526084016102e1565b60006001600160e01b038211156122e15760405162461bcd60e51b815260206004820152602760248201527f53616665436173743a2076616c756520646f65736e27742066697420696e20326044820152663234206269747360c81b60648201526084016102e1565b600080612ec98585856133b9565b915091505b935093915050565b8154600160801b90819004600f0b6000818152600180860160205260409091209390935583546001600160801b03908116939091011602179055565b600c5460405163e38335e560e01b81526001600160a01b039091169063e38335e5903490612f4d9088908890889060009089906004016142ef565b6000604051808303818588803b158015612f6657600080fd5b505af1158015612f7a573d6000803e3d6000fd5b50505050505050505050565b6000818152600360205260408120600281015460ff1615612faa5750600792915050565b6002810154610100900460ff1615612fc55750600292915050565b6000838152600360205260408120546001600160401b03169081900361302d5760405162461bcd60e51b815260206004820152601d60248201527f476f7665726e6f723a20756e6b6e6f776e2070726f706f73616c20696400000060448201526064016102e1565b60006130376117ed565b65ffffffffffff16905080821061305357506000949350505050565b6000858152600360205260409020600101546001600160401b03168181106130815750600195945050505050565b61308a86613558565b80156130a9575060008681526009602052604090208054600190910154115b156130ba5750600495945050505050565b50600395945050505050565b6000806130d5868686866135a4565b6000818152600d60205260409020549091501561211b57600c546000828152600d60205260409081902054905163c4d252f560e01b81526001600160a01b039092169163c4d252f59161312e9160040190815260200190565b600060405180830381600087803b15801561314857600080fd5b505af115801561315c573d6000803e3d6000fd5b5050506000828152600d60205260408120555095945050505050565b60008160000361318a57506000919050565b60006001613197846136b0565b901c6001901b905060018184816131b0576131b0614686565b048201901c905060018184816131c8576131c8614686565b048201901c905060018184816131e0576131e0614686565b048201901c905060018184816131f8576131f8614686565b048201901c9050600181848161321057613210614686565b048201901c9050600181848161322857613228614686565b048201901c9050600181848161324057613240614686565b048201901c90506118868182858161325a5761325a614686565b04613744565b60005b818310156132b6576000613277848461375a565b60008781526020902090915063ffffffff86169082015463ffffffff1611156132a2578092506132b0565b6132ad8160016143ab565b93505b50613263565b509392505050565b60008060f883901c602f811180156132d95750603a8160ff16105b156132ee57600194602f199091019350915050565b8060ff166040108015613304575060478160ff16105b15613319576001946036199091019350915050565b8060ff16606010801561332f575060678160ff16105b15613344576001946056199091019350915050565b50600093849350915050565b6060600061335d83613775565b604080516020808252818301909252919250600091906020820181803683375050509182525060208101929092525090565b81511561339f5781518083602001fd5b8060405162461bcd60e51b81526004016102e191906139fa565b8254600090819080156134ff5760006133d78761236760018561442b565b60408051808201909152905463ffffffff808216808452600160201b9092046001600160e01b0316602084015291925090871610156134585760405162461bcd60e51b815260206004820152601b60248201527f436865636b706f696e743a2064656372656173696e67206b657973000000000060448201526064016102e1565b805163ffffffff8088169116036134a057846134798861236760018661442b565b80546001600160e01b0392909216600160201b0263ffffffff9092169190911790556134ef565b6040805180820190915263ffffffff80881682526001600160e01b0380881660208085019182528b54600181018d5560008d81529190912094519151909216600160201b029216919091179101555b602001519250839150612ece9050565b50506040805180820190915263ffffffff80851682526001600160e01b0380851660208085019182528854600181018a5560008a815291822095519251909316600160201b029190931617920191909155905081612ece565b60008181526009602052604081206002810154600182015461357a91906143ab565b60008481526003602052604090205461359b906001600160401b0316611c5b565b11159392505050565b6000806135b386868686611af2565b905060006135c082610fc0565b905060028160078111156135d6576135d6613cde565b141580156135f6575060068160078111156135f3576135f3613cde565b14155b80156136145750600781600781111561361157613611613cde565b14155b6136605760405162461bcd60e51b815260206004820152601d60248201527f476f7665726e6f723a2070726f706f73616c206e6f742061637469766500000060448201526064016102e1565b60008281526003602052604090819020600201805461ff001916610100179055517f789cf55be980739dad1d0699b93b58e806b51c9d96619bfa8fe0a28abaa7b30c90610e3b9084815260200190565b600080608083901c156136c557608092831c92015b604083901c156136d757604092831c92015b602083901c156136e957602092831c92015b601083901c156136fb57601092831c92015b600883901c1561370d57600892831c92015b600483901c1561371f57600492831c92015b600283901c1561373157600292831c92015b600183901c15610a275760010192915050565b60008183106137535781611886565b5090919050565b6000613769600284841861469c565b611886908484166143ab565b600060ff8216601f811115610a2757604051632cd44ac360e21b815260040160405180910390fd5b6000602082840312156137af57600080fd5b81356001600160e01b03198116811461188657600080fd5b803560ff8116811461119957600080fd5b60008083601f8401126137ea57600080fd5b5081356001600160401b0381111561380157600080fd5b60208301915083602082850101111561381957600080fd5b9250929050565b634e487b7160e01b600052604160045260246000fd5b604051601f8201601f191681016001600160401b038111828210171561385e5761385e613820565b604052919050565b60006001600160401b0382111561387f5761387f613820565b50601f01601f191660200190565b60006138a061389b84613866565b613836565b90508281528383830111156138b457600080fd5b828260208301376000602084830101529392505050565b600082601f8301126138dc57600080fd5b6118868383356020850161388d565b60008060008060008060008060e0898b03121561390757600080fd5b8835975061391760208a016137c7565b965060408901356001600160401b038082111561393357600080fd5b61393f8c838d016137d8565b909850965060608b013591508082111561395857600080fd5b506139658b828c016138cb565b94505061397460808a016137c7565b925060a0890135915060c089013590509295985092959890939650565b6000602082840312156139a357600080fd5b5035919050565b60005b838110156139c55781810151838201526020016139ad565b50506000910152565b600081518084526139e68160208601602086016139aa565b601f01601f19169290920160200192915050565b60208152600061188660208301846139ce565b6001600160a01b0381168114610bb757600080fd5b60008060008060808587031215613a3857600080fd5b8435613a4381613a0d565b93506020850135613a5381613a0d565b92506040850135915060608501356001600160401b03811115613a7557600080fd5b613a81878288016138cb565b91505092959194509250565b60006001600160401b03821115613aa657613aa6613820565b5060051b60200190565b600082601f830112613ac157600080fd5b81356020613ad161389b83613a8d565b8083825260208201915060208460051b870101935086841115613af357600080fd5b602086015b84811015613b18578035613b0b81613a0d565b8352918301918301613af8565b509695505050505050565b600082601f830112613b3457600080fd5b81356020613b4461389b83613a8d565b8083825260208201915060208460051b870101935086841115613b6657600080fd5b602086015b84811015613b185780358352918301918301613b6b565b600082601f830112613b9357600080fd5b81356020613ba361389b83613a8d565b82815260059290921b84018101918181019086841115613bc257600080fd5b8286015b84811015613b185780356001600160401b03811115613be55760008081fd5b613bf38986838b01016138cb565b845250918301918301613bc6565b60008060008060808587031215613c1757600080fd5b84356001600160401b0380821115613c2e57600080fd5b613c3a88838901613ab0565b95506020870135915080821115613c5057600080fd5b613c5c88838901613b23565b94506040870135915080821115613c7257600080fd5b50613c7f87828801613b82565b949793965093946060013593505050565b600080600080600060a08688031215613ca857600080fd5b85359450613cb8602087016137c7565b9350613cc6604087016137c7565b94979396509394606081013594506080013592915050565b634e487b7160e01b600052602160045260246000fd5b6020810160088310613d1657634e487b7160e01b600052602160045260246000fd5b91905290565b60008060408385031215613d2f57600080fd5b823591506020830135613d4181613a0d565b809150509250929050565b60008060408385031215613d5f57600080fd5b82359150613d6f602084016137c7565b90509250929050565b600080600080600060808688031215613d9057600080fd5b85359450613da0602087016137c7565b935060408601356001600160401b0380821115613dbc57600080fd5b613dc889838a016137d8565b90955093506060880135915080821115613de157600080fd5b50613dee888289016138cb565b9150509295509295909350565b60008060008060608587031215613e1157600080fd5b84359350613e21602086016137c7565b925060408501356001600160401b03811115613e3c57600080fd5b613e48878288016137d8565b95989497509550505050565b60008060008060808587031215613e6a57600080fd5b84356001600160401b0380821115613e8157600080fd5b613e8d88838901613ab0565b95506020870135915080821115613ea357600080fd5b613eaf88838901613b23565b94506040870135915080821115613ec557600080fd5b613ed188838901613b82565b93506060870135915080821115613ee757600080fd5b508501601f81018713613ef957600080fd5b613a818782356020840161388d565b60008151808452602080850194506020840160005b83811015613f3957815187529582019590820190600101613f1d565b509495945050505050565b60ff60f81b8816815260e060208201526000613f6360e08301896139ce565b8281036040840152613f7581896139ce565b606084018890526001600160a01b038716608085015260a0840186905283810360c08501529050610b228185613f08565b600080600060608486031215613fbb57600080fd5b8335613fc681613a0d565b92506020840135915060408401356001600160401b03811115613fe857600080fd5b613ff4868287016138cb565b9150509250925092565b60006020828403121561401057600080fd5b813561188681613a0d565b600080600080600060a0868803121561403357600080fd5b853561403e81613a0d565b9450602086013561404e81613a0d565b935060408601356001600160401b038082111561406a57600080fd5b61407689838a01613b23565b9450606088013591508082111561408c57600080fd5b61409889838a01613b23565b93506080880135915080821115613de157600080fd5b600080600080606085870312156140c457600080fd5b84356140cf81613a0d565b93506020850135925060408501356001600160401b03811115613e3c57600080fd5b6000806040838503121561410457600080fd5b823561410f81613a0d565b946020939093013593505050565b600080600080600060a0868803121561413557600080fd5b853561414081613a0d565b9450602086013561415081613a0d565b9350604086013592506060860135915060808601356001600160401b0381111561417957600080fd5b613dee888289016138cb565b8183823760009101908152919050565b602080825260189082015277476f7665726e6f723a206f6e6c79476f7665726e616e636560401b604082015260600190565b600181811c908216806141db57607f821691505b6020821081036141fb57634e487b7160e01b600052602260045260246000fd5b50919050565b60208082526021908201527f476f7665726e6f723a2070726f706f73616c206e6f74207375636365737366756040820152601b60fa1b606082015260800190565b60006020828403121561425457600080fd5b5051919050565b60008151808452602080850194506020840160005b83811015613f395781516001600160a01b031687529582019590820190600101614270565b60008282518085526020808601955060208260051b8401016020860160005b848110156142e257601f198684030189526142d08383516139ce565b988401989250908301906001016142b4565b5090979650505050505050565b60a08152600061430260a083018861425b565b82810360208401526143148188613f08565b905082810360408401526143288187614295565b60608401959095525050608001529392505050565b60c08152600061435060c083018961425b565b82810360208401526143628189613f08565b905082810360408401526143768188614295565b60608401969096525050608081019290925260a0909101529392505050565b634e487b7160e01b600052601160045260246000fd5b80820180821115610a2757610a27614395565b6000602082840312156143d057600080fd5b81516001600160401b038111156143e657600080fd5b8201601f810184136143f757600080fd5b805161440561389b82613866565b81815285602083850101111561441a57600080fd5b61211b8260208301602086016139aa565b81810381811115610a2757610a27614395565b634e487b7160e01b600052603260045260246000fd5b60208082526021908201527f476f7665726e6f723a20696e76616c69642070726f706f73616c206c656e67746040820152600d60fb1b606082015260800190565b60006101208b8352602060018060a01b038c16818501528160408501526144be8285018c61425b565b915083820360608501526144d2828b613f08565b915083820360808501528189518084528284019150828160051b850101838c0160005b8381101561452357601f198784030185526145118383516139ce565b948601949250908501906001016144f5565b505086810360a0880152614537818c614295565b9450505050508560c08401528460e084015282810361010084015261455c81856139ce565b9c9b505050505050505050505050565b60006020828403121561457e57600080fd5b815165ffffffffffff8116811461188657600080fd5b6080815260006145a7608083018761425b565b82810360208401526145b98187613f08565b905082810360408401526145cd8186614295565b91505082606083015295945050505050565b84815260ff841660208201528260408201526080606082015260006110d260808301846139ce565b85815260ff8516602082015283604082015260a06060820152600061462f60a08301856139ce565b828103608084015261464181856139ce565b98975050505050505050565b60006020828403121561465f57600080fd5b8151801515811461188657600080fd5b8082028115828204841417610a2757610a27614395565b634e487b7160e01b600052601260045260246000fd5b6000826146b957634e487b7160e01b600052601260045260246000fd5b50049056fe476f7665726e6f723a2072656c617920726576657274656420776974686f7574206d657373616765a26469706673582212209724ec09330db1ef2a975a1361a35aea506d36f0a3b5cb7ccb42f116470e1efb64736f6c63430008180033",
  "linkReferences": {},
  "deployedLinkReferences": {}
}